:10000000706B0020D50C0000CD0C0000CF0C000060
:10001000D10C0000D10C0000D10C00000000000049
:10002000000000000000000000000000D10C0000F3
:10003000D10C000000000000D10C0000D10C000029
:10004000D10C0000D10C0000D10C0000D10C00003C
:10005000D10C0000D10C0000D10C0000D10C00002C
:10006000D10C0000D10C0000D10C0000D10C00001C
:10007000D10C0000D10C0000D10C0000D10C00000C
:10008000D10C0000D10C0000D10C0000D10C0000FC
:10009000D10C0000D10C0000D10C0000D10C0000EC
:1000A000D10C0000D10C0000D10C0000D10C0000DC
:1000B000D10C0000D10C0000D10C0000D10C0000CC
:1000C000D10C0000D10C0000D10C0000D10C0000BC
:0800D000D10C0000D10C00006E
:1000E00053B94AB9002908BF00281CBF4FF0FF319F
:1000F0004FF0FF3000F00CB8ADF1080C6DE904CE04
:1001000006F0E2FBDDF804E0DDE9022304B070470D
:10011000704700BF10F8012B11F8013B012A28BFDE
:100120009A42F7D0D01A7047034613F8012B002AE1
:10013000FBD1181A013870470000000000000000D1
:1001400001F0FF01102A2BDB10F0070F08D010F888
:10015000013B013A8B422DD010F0070F42B3F6D18C
:10016000F0B441EA012141EA014122F007047FF0A5
:1001700000070023F0E80256083C85EA010586EAFC
:10018000010685FA47F5A3FA87F586FA47F6A5FA38
:1001900087F68EB9EED1F0BC01F0FF0102F0070244
:1001A00032B110F8013B013A83EA010313B1F8D1EF
:1001B0000020704701387047002D06BF35460338D0
:1001C000073815F0010F07D1013015F4807F02BF09
:1001D000013015F4C03F0130F0BC0138704700BF5A
:1001E00010B5094C024601444FF6FF7012F8013B6E
:1001F00080EA0323180A914234F8100080EA0323AE
:1002000098B2F3D110BD00BF9876000010B4019BE6
:1002100003BBFAB1124B134C197822680D29CBB2EB
:1002200001D00A2B08D1AAB10F4B002199540F4BD2
:10023000012210BC1A7070471E2A0BD80C49C95CE9
:1002400001F00301022902F101012160064908BF02
:10025000203B8B5410BC02490023012203F0B0BFA5
:10026000A41B0020A01B0020A61B0020A51B002013
:100270002982000010B50446FFF756FF02460448E5
:1002800021460068BDE81040002304F011B900BF0A
:10029000381D00200FB400B5A3B024AB802153F863
:1002A000042B019302A806F0F9FD02A8FFF7E2FF74
:1002B00023B05DF804EB04B07047F0B500260127C9
:1002C0001378F5B2AB4201D80120F0BD07EB45032E
:1002D00010F81540C35C402C8CBF373C303C402BA1
:1002E0008CBF373B303B43EA04134B550136E7E7FD
:1002F0004B1E292B37B50D4628D801784278144C6F
:100300000B0443EA0223827841F3C011134381F0C6
:10031000550143EA01632A4601460E48236106F06F
:100320000BFE00236061002100206380E573CDE9AE
:10033000000109481A460068214602F0B9FB6088AE
:10034000A0F550535842584103B030BD0020FBE7A0
:100350007C180020C81B0020341C002070B51446F7
:1003600005460E46FFF7E0FEC3B29A1F042A0AD8DC
:10037000C20708D45B082370224631462846BDE8F0
:100380007040FFF79ABF002070BD00002DE9F743D1
:100390001C4D1D4E00241746814640221B48B46068
:1003A00088462146C6E9004406F086FDEB7F04221C
:1003B00062F30303EB774FF47A635F430022002379
:1003C000C5E90A402F62CDE90023114823460068A1
:1003D0002246294602F06CFB6B88B3F5505F03D0D0
:1003E00043F2034293420AD196F9073089F800306C
:1003F0002B8B88F80030012003B0BDE8F083204645
:10040000FAE700BF94180020901B0020F41B002086
:10041000341C00202DE9F74F1C46CB1E022B019007
:100420000F46164603D9002003B0BDE8F08F022A1C
:100430005ED0531ED3F1000848EB0308019A07F180
:10044000020908EB09039342EDD8334D3222002113
:10045000204606F031FD2946677084F82A603A4646
:10046000A01C06F069FD05F1010AEB5D1AF8071002
:100470005B004FEAD30B43EAD110BBF1200FC3F36B
:1004800041034FEAD11184F807B023726172CAD8D0
:100490000BEB0903019A08EB03018A421F46C2D302
:1004A00000F001085A4605EB090104F10A00019326
:1004B00006F042FD012E019B1CD1E85C174AA08585
:1004C000FF21002315F8016B013371409BB2BB4241
:1004D000515CF7D3E185884214BF0020012058EA1F
:1004E0000B020CBF01230023207084F830309BE7FF
:1004F0009046A3E7022E0CD1EB5D1AF8070040EA04
:100500000326A68539462846FFF76AFEE08586421F
:10051000E2E70120E3E700BFF41B00209878000029
:100520002DE9F04FADB0054619AB6448DFF8A8C11E
:100530000E46144600211F46CAB2944257D82CAB2F
:1005400003EB44034FF0000903F84C9C324623466A
:100550005B4800972946FFF79DFE5A4B1A78012AFF
:100560007ED193F8088020460CAB4146FFF752FF3E
:1005700000284CD09DF83130DFF860C10DF1310416
:1005800009AA0020C1B28B4271D82CAA02EB430306
:10059000002203F88C2C9DF86020002A77D19DF86A
:1005A0003700DFF83CC10DF139033C46D1B281423E
:1005B00074D32CAB03EB4003002203F84C2C9DF8C2
:1005C00030C0414C414B9DF838209DF839100090C7
:1005D000BCF1000F18BF2346CDE90121CDE903731B
:1005E0003B4809AB32462946FFF754FE17E010F8A6
:1005F000012B4FEA121E02F00F021CF80EE003F866
:1006000002EB1CF8022003F8012C013194E70CAB3B
:10061000022241462046FFF7FDFE0028AAD12DB058
:10062000BDE8F08F9AF8001007920CAB2046FFF758
:10063000F1FE00289ED108F1FF3818F0FF08079A54
:100640000AF1010AEED109F10103022B4FF0010971
:1006500009D0DFF890A01BF809204FF00308E1E76C
:10066000DFF884B0F5E70CAB42460521D2E714F879
:10067000011F4FEA111E01F00F011CF80EE002F8F5
:1006800002EB1CF8011002F8011C01307AE7114856
:1006900009AB32462946FFF7FDFDC0E713F8011FFD
:1006A0004FEA111E01F00F011CF80EE004F802EBF6
:1006B0001CF8011004F8011C013277E7F41B00203C
:1006C000A079000070180020987900009B79000044
:1006D000F2790000C97900007C7D00007C7D00007B
:1006E0007C7D00008F7D00008D7D00007D2807B59A
:1006F0000DD8084900F51660002200230884CDE9D2
:1007000000230548002300681A4602F0D1F903B01F
:1007100000BD00BFC4180020341C00202DE9F043A8
:10072000A249A3489BB0032206F0DCFB054610BBA0
:10073000A049A148FFF7EEFC40B9A04BA048022217
:100740001A701BB0BDE8F043FFF794BD9A4806F05D
:100750004BFAC4B27D2C4ED8984B20465C701D706D
:10076000FFF7C4FF974804F5166221461BB0BDE8A9
:10077000F043FFF78FBD94498D48052206F0B2FB88
:100780000446002847D1052390488DF8103004AA6C
:1007900007A9FFF7E3FD70B39DF810508C482A4677
:1007A00007A906F0C9FB9DF81C104571012200F84D
:1007B000032C9DF81D200B0443EA02239DF81E2004
:1007C00041F3C011134381F05501824A43EA0163AA
:1007D0002046814C136107AB0FAAC1B28D420DD8E0
:1007E0001AAB03EB4503002203F82C2C7B482A4666
:1007F0000FA9FFF74FFD1BB0BDE8F08313F8011BF5
:100800000E0901F00F01A65D02F8026B615C02F8AF
:10081000011C0130E1E772496548FFF77BFC38B9FC
:10082000664B18706B4B6F484FF0AA321A6188E71D
:100830006D495F48FFF76EFC18B9604B98706B48C4
:100840007FE76B495A48FFF765FC20B95B4B694865
:1008500001229A7075E768495548FFF75BFC20B99B
:10086000564B664802229A706BE76549504803224E
:1008700006F038FB0746002840F0DE804E4E3A2155
:10088000304606F021FB044608B95E4859E7851B4F
:10089000AB1FDBB2042B01D95B4852E7EDB22A460D
:1008A000314604A806F048FB05F168030DEB03058B
:1008B0000DF10602052305F8587C02A904A88DF85D
:1008C0000630FFF74BFD18B95048FFF7D3FC92E70D
:1008D0006678002E60D0601CFFF726FC10F0FF0643
:1008E00058D0C20756D47608202E8DF8076051D80C
:1008F00007A9601C0DF10702FFF7DFFC9DF8065009
:100900000C46DFF81481EB1E022B98F8007049D8D2
:100910000EB1002C48D00DF13C092A4602A94846E8
:1009200006F00AFB05F168030DEB03027B0003F000
:10093000060343EAC6035B0802F82C3C05F1690391
:10094000A81C0DEB0305002305F82C3C85193EB3CC
:1009500034B321463246484406F0EEFAACB2A9B2AE
:100960004846FFF73DFC04F168036B44020A03F8B4
:100970002C2CA51C1AAB013413FA84F4ADB204F884
:100980002C0C013707F0030788F80070002D45D1C3
:100990001F489AE71F4898E79DF806503446B0E78D
:1009A0000446DCE70025ECE72546EAE73B7A000051
:1009B000A61B00203F7A0000A91B00207018002011
:1009C000447A0000567A0000717A0000AB1B0020C8
:1009D00073180020941800207C7D0000777A0000B6
:1009E0009B7A0000A87A0000BD7A0000C57A00005A
:1009F000F77A0000FF7A0000317B00003B7B0000AB
:100A00006F7B0000737B00009B7B0000B27B0000CB
:100A1000E17B0000C87B00009C1B0020E9B20FA80E
:100A2000FFF766FC30B117482B46324604A9FFF7A2
:100A300031FCE0E6144848E714491548072206F05F
:100A400051FA00287FF4D7AE1248FFF76DFB88B14A
:100A5000C3070FD4C0F346040FA90E488DF81C40FD
:100A600007AAFFF72AFC21460FA8FFF741FC18B997
:100A700009482AE7094864E609482146FFF70AFCC5
:100A8000B9E600BFF87B00001A7C0000327C000051
:100A9000A61B0020AD1B0020647C00003A7C0000F7
:100AA0004F7C00002DE9F04F97B000F0AEF904F054
:100AB000DFFC0DA803F04CFA4FF4E133139301244B
:100AC0006B4B0E930DA90020ADF8344003F0A0FD50
:100AD000DFF8F0A16749CAF800000023224603F0BE
:100AE0006FFB05A801F0F6FF05AB634A6349644854
:100AF00001F0FCFF634B1860002860D0624C634833
:100B0000FFF7B8FB6178A07801F51662002860D184
:100B10005F4B2578002D62D05E485F4E012D08BFE7
:100B2000304600905D48DFF8A091FFF7B3FB5C4BC7
:100B300060784FF0AA321A61FFF7D8FD002599F8C6
:100B4000003063B1FFF7EAFD564B4A491D60DAF801
:100B5000000089F800500023012203F031FB2378C4
:100B6000022B6DD1002699F80030002B39D1F7B255
:100B70003846FFF7BBFD05F009F9039005F000F9D1
:100B80006FF0770B44F620634FF00008B3FBF0F3EF
:100B9000029305F0FBF8039BC01A029B984231D3E5
:100BA000B8F1000218BF012231463F48CDF800B02D
:100BB00043460136FFF76EFB7E2ED4D1BFE73B489C
:100BC000FFF758FB3A48FFF755FB3A4805F0F8F8AD
:100BD000FBE7394B394D012808BF2B4699E73848C8
:100BE0009FE7FFF79BFD2F4B22491D60DAF80000BD
:100BF00089F800500023012203F0E2FA2378022B47
:100C0000B5D09CE714226FF077030DEB02010DF1D4
:100C100013008DF813308DF81450FFF7B7FB002840
:100C2000B7D09DF913109DF814208B4508F10108E9
:100C300038465FFA88F8B8BF8B46FFF771FCA8E723
:100C400088234FF47A7205A90DF113008DF8133043
:100C50008DF81450FFF79AFB00283FF470AF9DF811
:100C600014209DF913106078FFF75AFC67E700BF66
:100C70000D020000A41B0020C4180020141900203D
:100C8000381C0020341C002070180020897C0000D3
:100C9000C27A00003F7A0000807C0000EB7C0000FC
:100CA00094180020A01B0020177D0000B47C0000D9
:100CB000CB7C000040420F00367B0000FC7A000035
:100CC000A07A0000381D0020A51B0020FEE7FEE7EB
:100CD000FEE7000008B505F0C3FC0F4B0F4A1049B2
:100CE0008B4213D30F4810494FF000028842B8BF1F
:100CF00040F8042BFADBDFF83400016841F470019E
:100D00000160FFF7CFFEFFF7E2FF08BD52F8040BCA
:100D100043F8040BE4E700BF701800209C9B002000
:100D20008C1B0020901B00207027002088ED00E025
:100D300038B500210546142002F034FA07240021BA
:100D40000A2002F02FFA45FA04F101F0010109200E
:100D500002F028FA01210A2002F024FA082005F006
:100D6000F9FA013CEBD200210A2002F01BFA142010
:100D7000012102F017FABDE838404FF42F7005F05A
:100D8000E9BA000008B50A49142002F06DF9002103
:100D9000142002F007FA012005F0DCFA14200121EA
:100DA00002F000FABDE808404FF40C7005F0D2BA2A
:100DB0000164002008B5FFF7E5FF1049142002F098
:100DC00053F90F490A2002F04FF90D49092002F0AA
:100DD0004BF90C49082002F047F9B920FFF7A8FFAA
:100DE000142002F017F90A2002F014F9092002F089
:100DF00011F9BDE80840082002F00CB90164002098
:100E00000064002002200020704708B502F052FB69
:100E100004F02EF8FFF7CEFFFFF7F6FF08BD000045
:100E20000E4BF0B54FF0580C054600241E46B3F9A2
:100E300030708F42184609D11F69BD4206D15AB1A0
:100E40000CFB046797F83370174205D10134082C66
:100E500003F15803EBD10020F0BD00BF18210020A2
:100E6000034BDA69002AFCD00022DA61704700BF28
:100E70000010044030B50C461546B1FA81F1B2FAC3
:100E800082F24909520900283FD055B190F8443008
:100E9000002B39D0ECB194F8443043B91A46002104
:100EA00033E0002C36D094F84410002930D0236C65
:100EB000416B24699B08C3EB91030169A14214BFF4
:100EC000C96800215B1A03F18053B3F1805FE6D952
:100ED00005B3EB681B7B03F00F03022B1CD1036CE3
:100EE000696B9A08C2EB91022B690169994214BFA0
:100EF000DB680023D21A02F18052B2F1805F94BF06
:100F000000220122012100E01A4601EA020030BD60
:100F10000122FAE70122F5E70022F3E700207047FB
:100F20000A4B1A68936802F1380019465B680BB1E6
:100F30008342FAD14B7B190706D1508F40F6090343
:100F4000C31A58425841704700207047D8200020EB
:100F50000A4605494B6833B18968084203D0014607
:100F60000248006818477047F47D0000D820002030
:100F700070470000064B1B78022B07D1054B1A69FE
:100F800022B95869B0FA80F04009704700207047D4
:100F9000C8200020F42000200F4B70B51E680568A3
:100FA0004FF080530446D3F88C311B6B9847801B5D
:100FB000030BB5EB103F84BF5B195B0840F6C4120E
:100FC0009342236001D9226070BDB3F5967F3CBF88
:100FD0004FF496732360F7E71C20002081B38B0148
:100FE000090E202923F0FF0319D0212919D0A029A7
:100FF00019D0D1B110291AD011291AD040291AD0EC
:10100000502914BF90228022134343F00F0301465E
:1010100050F8042BB2F1FF3F0FD10B607047102244
:10102000F2E72022F0E73022EEE74022ECE7502200
:10103000EAE76022E8E77022E6E79A42E7D1ECE7C8
:10104000704791B38B01090E202923F0FF021BD0BA
:1010500021291BD0A0291BD0E1B110291CD01129B6
:101060001CD040291CD0502914BF90238023134347
:1010700043F00F03014650F8042BB2F1FF3F11D1AA
:101080004FF0FF330B6070471023F0E72023EEE7AB
:101090003023ECE74023EAE75023E8E76023E6E764
:1010A0007023E4E79A42E5D1EAE7704770B5044659
:1010B00016461D4604F00EFF5CB1D4E90A23324304
:1010C0002B43C4E90A23D4E9082332432B43C4E960
:1010D0000823BDE8704004F005BF70B550231446E6
:1010E00040F2FF3205460E4601F0A5FEFF280CD067
:1010F000A2022B2E18BF42F40A7203B20CBF42F0B8
:101100002B0242F0030245F8232070BD70B51C4D40
:10111000044604F0DFFE95F8243023EA04032C682B
:1011200085F8243006464CB9686870B90BB92B6A4B
:10113000BBB93046BDE8704004F0D4BE04F1B8003D
:1011400004F014FE0446686820B1B83004F00EFEC6
:101150000443E4B295F82430002BEAD1002CE8D106
:10116000E5E79A6A9207E4D530465C6A04F0BAFE75
:10117000286A00220221A04700232B6270BD00BF15
:10118000202000200720FFF7C1BF10B50129044629
:1011900038BF012104F0D0FD2046BDE8104004F026
:1011A0004FBD2DE9F041D0F8A88004460F46164601
:1011B0001D46B8F1000F00D0C047D4E928231640DF
:1011C0001D4056EA05031BD0802239462046FFF712
:1011D00027FEC4E92C6550B1D0E9081323EA0503C2
:1011E00021EA0601C0E90813D4F8A830836000237F
:1011F000C4F8A83004F15000BDE8F04104F00CBA86
:10120000BDE8F08138B5184B1B685A68D2E9013542
:10121000D46810B37DB924B92BB3BDE8384001F0D0
:1012200009BE124A1249D56111600BB101F002FEEC
:10123000FFF716FE0BE00D4A0021D1610C49116049
:101240000BB101F0F7FDFFF70BFEA84704B1A04773
:10125000BDE83840074801F0B7BD03B19847002DFD
:10126000F1D1002CE4D138BDD8200020001004407A
:10127000510007060100070670B5144E1448356981
:1012800001F00CFE134AD368D4680440184010F0F3
:1012900020030AD04DB128460022B561FFF706FFB2
:1012A0000D484FF4804104F0F5FA14F460240CD09A
:1012B0000A4A0B4892F8613043EA544382F861309D
:1012C000BDE87040002104F0E5BA70BDF4200020B4
:1012D00020000E0000100440D424002060200020D4
:1012E0007C240020064B70B55C68064B1D6804F03A
:1012F000CBFA234601462846BDE87040184700BF98
:10130000C8200020D820002008B50D4B19420CD071
:10131000012003F03DFF012808D10A4B0A4A5A6018
:101320000A4B0022DA610A4A1A6008BD04F028FD5F
:101330003221BDE80840B1FBF0F10648FFF725BFB8
:1013400004000020C82000200924000000100440F0
:10135000482000201C24002008B54FF0FF3001F089
:101360002BFD830706D5BDE8084003484FF4006114
:1013700004F090BA08BD00BFD424002038B5094B52
:101380001B78022B0D46DCB209D101F01DFD05B121
:101390002860C0B2012808BF8124204638BD01243E
:1013A000FBE700BFC8200020042838B505461AD145
:1013B0000E4804F0DBFCB0B104F0E2FC04460B483C
:1013C00004F0BCFC4443B4F5967F0CD2074804F00B
:1013D000AFFC052002F0B4F9054B0648012229466E
:1013E0005A7304F057FA002038BD00BF1C240020B7
:1013F000C8200020D42400202DE9F8431D46454B89
:10140000089ED3F894420388C4F34067A40167D5CB
:10141000B3F5C15F16D043F60604A3421BD040F6D5
:101420000204A3424FD100F112030B604369136021
:1014300083692B60C369336090F80F80047C04F0EB
:10144000070416E000F112030B6043691360436A5E
:101450002B60836AEFE700F11A030B60C369136026
:10146000036A2B60436A3360047E4FF0000804F087
:101470000704286888B105234FF6FF7240F2037114
:1014800001F0D9FC042808D80FFA80F9214640461B
:101490002D6801F0E3FC45F82900306880B1052390
:1014A0004FF6FF7240F2037101F0C5FC042807D823
:1014B00004B2FF214046356801F0D0FC45F8240015
:1014C0003846BDE8F88300F11A030B60C369136066
:1014D000836A2B60C36A336090F82480047EAEE791
:1014E000B3F5C15F07D043F60604A3420CD040F623
:1014F0000204A34208D100F112030B604369136098
:1015000000232B603360DBE700F11A030B60C36933
:10151000F5E700BF0010005010B50146447E80681A
:101520000388002286B0B3F5C15FCDE90222CDE980
:10153000042242802FD01FD840F6020293422AD0C4
:1015400000234B7605AB009303AA04AB02A9FFF777
:1015500053FF80B3029B1A884FF6FF739A422AD139
:1015600005990398FFF73AFD164B1B6843B30398A0
:1015700006B0BDE810401847A3F56053063B012BA9
:10158000DED8437E62F382034376038B8CB162F331
:1015900009130383D4E7437C6FF382034374038A04
:1015A0001CB16FF309130382CAE72D2262F30913FA
:1015B000F9E72D22EBE705990398FFF742FDD3E702
:1015C00006B010BD0C2000208B002DE9F04105462F
:1015D0006FD50020FFF716FE374C384A38490023F4
:1015E00040F60A08D3611160A4F800806380227B72
:1015F00063F3030222736360637B012262F30303DC
:1016000028466373FFF788FFAF683B461E465B685A
:1016100033B11A88424503D0A2F60302012AF5D855
:10162000737B74606FF303037373264B1B6833B1D2
:10163000DB681B88A3F603039BB2012B15D92B8F04
:101640009BB1B5F8443023F4706305F1380123F001
:101650000F0343F480736160A5F84430637B00227C
:1016600062F303036A87EA636373174CFFF7F8FBBF
:10167000164B6360637B7BB102F0E0F90028FBD07E
:1016800002F0F4F90D4B0022DA6139461F600120A7
:10169000BDE8F041FFF75CBC012003F079FD0128B3
:1016A000F0D0737B012262F303037373084B636012
:1016B000E8E7BDE8F08100BF4820002000100440AA
:1016C00001010E04F4200020C8200020092400009D
:1016D00009130000F0B5002387B0CDE90233CDE94E
:1016E000043305AB0E4600931546C1F3150404AB55
:1016F00003AA02A9FFF780FE002E23DB029BD0B1D4
:10170000049E86B1059F77B140F22B211C802246B2
:101710003046FFF7E2FC03983946FFF792FC1523A9
:101720002B806E600CE019884FF6FF72914202D157
:10173000032007B0F0BDA4B21C8010232B806C8066
:101740008320F6E70028F3D0DDE903737BB1059E23
:101750006EB1029B4FF6FF721A802B212246304653
:10176000FFF7BBFC31463846FFF738FCD7E7224687
:101770002B213846FFF7B1FCFF28D9D0029B4FF64A
:10178000FF721A8014232B806C60D9E7F7B51E68AE
:101790001D463246FD2304468DF80730FFF76AFBED
:1017A00010B101238DF807309DF80730FD2B10D1C3
:1017B000E3681B7B03F00F03022B0AD14EB137689D
:1017C00031463A462046FFF755FBB8B102238DF863
:1017D00007309DF80730FD2B04D1E36B13B10423D0
:1017E0008DF807309DF80730012B5FB208D12146F4
:1017F000284601F0E1FB384603B0F0BD3E46DDE788
:10180000022F06D1326832B12146284601F0A8FBEA
:10181000F1E7042FEFD12146284601F0B7FBEAE7B4
:101820002DE9F74F01931F4B1C6880460D46174664
:1018300044B1AC420AD1DFF86C902E46002409F185
:10184000080A2EB9204603B0BDE8F08F2468EFE700
:101850003369D6F800B098451FD14FF0805300226D
:101860003046FFF723FC019B73B100224FF08073D9
:101870003046FFF71BFC0C4B2A691A6293F82420B0
:1018800042F0010283F824203146484601F0AAFBC9
:101890003146504601F07AFB0134002FD2D05E462B
:1018A000CFE700BFF4200020202000202DE9F74FD3
:1018B00005469DF830700C461E4692464FF00008D3
:1018C000EAB94FF0005904F005FB621C019024D1E5
:1018D000454B1A69B2B11269954213D1D3F810B0D1
:1018E000BBF1000F7DD09BF833301B061CD40424C1
:1018F000019804F0F7FA204603B0BDE8F08F4FF0EE
:101900008049E0E75A6912B11269954202D0D3F8D2
:1019100000B0E5E7D3F814B0E2E7002221462846FC
:10192000FFF77EFA8346DBE72F4C23695B4531D115
:10193000206942464B46FFF7B9FB60694B46424679
:10194000FFF7B4FB29482A4BBAF1000F18BF18461D
:1019500001F03AFAAFB1206900224FF08073FFF72F
:10196000A5FB00224FF080736069FFF79FFB214BBE
:10197000DBF810201A6293F8242042F0010283F869
:1019800024202EB121683B4601222846FFF748FF5C
:101990008324ADE763695B450FD160694B464246DE
:1019A000FFF784FB1448154BBAF1000F18BF184617
:1019B00001F00AFA002FE4D0D3E73B4632465946FD
:1019C0002846FFF72DFF002891D00D4B1A78012AE9
:1019D000DED01B78042BDBD00A490B4803F05AFFFA
:1019E000D6E7032484E700BFF420002001000104AF
:1019F0000100020420200020010001240100022433
:101A0000C820002002000040D424002010B5044665
:101A100004F060FA034A137823431370BDE81040C2
:101A200004F060BADC20002070B51E4C002526466C
:101A3000A07A01281BD194F909301B4A113300FA0E
:101A400003F3D9439160D1680B43D36094F9093013
:101A50009840C0B2FFF7DAFF002104F11000FFF751
:101A60008DFC81280ED1A06938B90223A3720135FB
:101A7000032D04F12004DBD170BD0021FFF77EFCB3
:101A80008128F2D094F9091096F8613007481122A4
:101A90008A401343DBB2002186F8613003F0FAFE7E
:101AA000E5E700BF60200020001004407C240020F7
:101AB00038B5054604F00EFA084B1A78044622EAB7
:101AC000050018701B781B0703D40548082103F094
:101AD000E1FE2046BDE8384004F004BADC200020D6
:101AE000D4240020054B9A8BDB8B12B21BB29A4296
:101AF00002D10820FFF7DCBF704700BFF4200020B0
:101B0000F8B54A4DAC68002C00F08F80E3680922DC
:101B10009BB1013A12F0FF020FD01988A1F6030120
:101B200089B2012951D8226903F11801383253F8DA
:101B3000040B42F8040B8B42F9D100210020D4E9B8
:101B40000A23C4E90A01A16881B113F0E24708D071
:101B500022F00F0223F0E24352EA030137D10022C0
:101B60003B46A668B4F930102069B04704F0B2F9DA
:101B7000EB8B0133C3F30B03EB83002384F8333087
:101B80004FF6FD7323860646294801F0D5F9304605
:101B900004F0A8F9EA8BAB8B12B21BB29A4244D183
:101BA000244BD3E90045244B1B68B3B193F8FC30B8
:101BB000002B0CBF05200720FFF7A8FA3CBB75B926
:101BC000BDE8F8400020FFF78DBF5B68A0E7A6687E
:101BD000B4F930102069B047C1E70520ECE70023D5
:101BE00095F8FC100022F1B92C6885F8FC209C4285
:101BF00038BF1C46002CE3D0631C16D004F0C0F89C
:101C0000B4FBF0F1BDE8F8400C48FFF7BEBA94F819
:101C1000FC301BB1002384F8FC30D0E72368002D92
:101C2000DED12C46E3E71446DFE7F8BDF4200020C0
:101C3000FC20002020200020D8200020D8230020D5
:101C4000F8B5044604F046F9A37A05467BB31A4971
:101C500094F90920D1F84011012303FA02F0CE07CC
:101C6000C0B20CD515490968090608D514491132C6
:101C7000CE689340DA4326EA0303CB608A600023F0
:101C800000260027C4E90033C4E90467A372237265
:101C9000A3610C4B93F86020024383F8602093F813
:101CA000622012B1013A83F86220FFF701FF284653
:101CB000BDE8F84004F016B90020084000000440D8
:101CC00000100440602000202DE9F3472E4C94F8CA
:101CD0006130002B41D094F86130D80747D50025FA
:101CE00000E0012594F8617004F0F4F894F8613094
:101CF0001122AA4023EA020384F8613004F0F2F8CA
:101D000004EB4510FFB2837A6A0133B390F909609E
:101D10001E4B54F80290D0F8048033449B00D3F853
:101D200000A01023AB403B420DD1037A022B02D11D
:101D30000369D90001D4FFF783FFCDF800A000228A
:101D40004FF0006306E0FFF77BFF002300930022C3
:101D50004FF0007331464846C04794F8613083B174
:101D60000B48002102B0BDE8F04703F093BD94F8A2
:101D700061309A07B5D494F861305B07EDD5022540
:101D8000B0E702B0BDE8F08760200020250C01100C
:101D90007C24002010B504F09DF8124A1178022925
:101DA000034602D01278042A06D10F4A1846546816
:101DB00004F098F8204610BD04F094F84FF08053DA
:101DC000D3F88C311B6B9847084A10F50030A0FB04
:101DD000020341F1000102FB0133054A14691C446E
:101DE000E8E700BFC82000200030044000093D00A3
:101DF00048200020284B70B505461C68084671BB7A
:101E000084B302B11460E1680B7B03F00F03022B73
:101E10003FD1226948B3968DD368646B1E44FFF7A7
:101E2000B9FF06F57A72201AB2EB900F4FEA9003D1
:101E30002DD2B0F1404F2AD29B1B012B38BF01237A
:101E40002B6003F09DFF2B68B3FBF0F301200AE049
:101E5000E3681B7B03F00F03022BD2D02468002C15
:101E6000F6D1204603462B6070BD09880B4B568B7C
:101E700093F86230A1F6030189B2012994BF526937
:101E8000126903EB830303EB83031344C5E70023C9
:101E9000D6E70023DAE700BFF4200020602000200E
:101EA0002DE9F043684F85B03D680023029303930A
:101EB000002D2DD07B690BB93B69BBB13C69B4B136
:101EC0003B691A692B699A4229D195F8334014F07D
:101ED00010040CD07B6913BB3B69DB685B88002B6B
:101EE000FAD03B69DB685B88012BF5D0012484F0D4
:101EF000010902AA494603A8FFF77CFFF0B184B9A3
:101F0000039921B3514805B0BDE8F043FFF73DB94F
:101F100002214F4805B0BDE8F04303F0BBBC0024EC
:101F2000E5E74C4B5E680EB1039B9BB14A4B2A69B7
:101F30001B689A426CD04FF48061EAE7454B5B68BE
:101F4000002B30D1F4B1444B1A682B6930E0414B7F
:101F50005E68BEB1DDF80880404B38697969A3F14D
:101F60000802CDE90098B04701280ED0022817D109
:101F700038693B69B3F930100123009300690022EE
:101F8000FFF794FC05B0BDE8F083B8F1000F18BF6F
:101F900045460023B5F93010009028691A46EFE74E
:101FA000002CEFD0C2E7002CECD02B4B2A691B6829
:101FB0009A42C0D10820FFF729FD95F83330224816
:101FC000DB0634D500F0B8FF7861D5E90612244B62
:101FD000EC68C8431861586901435961D14399605D
:101FE000D9680A43DA6029460820FEF7B1FF204687
:101FF00000F0EAFE2388B3F5C15F04D01BD840F699
:10200000020293421CD121460120FEF7A1FF17E0F6
:10201000039B002BCED03B69002BCBD17B69002BDF
:10202000C8D1082005B0BDE8F043FFF741BD00F07E
:1020300083FF3861C9E7A3F56053063B012BE2D962
:102040004FF0804165E700BFF42000201C240020F1
:10205000D4240020A0190020D8200020FC2000203B
:10206000001004402DE9F043354B85B04FF480401B
:1020700000930433019300F09FFEC0B14FF004536E
:102080000021D3F898332F4C63F315012E4B2068B1
:1020900093F885308068C3F3800363F3DF7102AA8D
:1020A000FFF718FB236801209968FEF751FF00270E
:1020B000E8463D46B94658F8044B23684BB32368BD
:1020C000986900F079FE0646324620680023FEF744
:1020D000EDFF16F00A0F2BD023681C4A9B6951694B
:1020E00023F4804323F0020321EA030353612168B0
:1020F000D368C96923EA0103D36021681020FEF781
:1021000027FF2168124800F041FF45F00205C4F89E
:1021100000905FB11DB10F48294603F0BBFBFFF7EC
:1021200083FC05B0BDE8F043FFF7BABE0127C2E764
:10213000002EEED0084B22689A6145F48045E8E70E
:1021400004210020D82000200003002100100440BA
:10215000FC200020D4240020F420002038B5114DAC
:102160004FF0FF3000F028FE6A680F4B9A42044699
:102170000DD10E490E48002203F014FF02232B70EC
:10218000FEF7CEFE18B9FFF74FFCFFF789FE094BAB
:102190001C4206D0BDE8384007484FF0005103F01C
:1021A00079BB38BDC820002009240000652000004C
:1021B000B824002002000040D42400202DE9F04F74
:1021C000002485B0046005462246214603A8FFF797
:1021D00011FEDFF8A8A0DFF8A88000904FF0FF3BC9
:1021E0002046264657464FF019099AF80A204AB366
:1021F0009AF80820022A38D0D8F8000097F8622010
:10220000418B0069DAF81440014419FB0212019273
:10221000FFF7C0FD019A201A02F57A71B1EB900F19
:102220004FEA90041FD2B0F1404F1CD2A41A012CE7
:1022300038BF012403F0A4FDB4FBF0F4A34528BF8C
:10224000A34601200136032E0AF1200ACDD1009BBE
:102250007BB1039B10B15B4528BF5B462B6001201F
:1022600005B0BDE8F08F0024E4E74FF0000B01203B
:10227000EDE70028F4D05B46F0E700BF60200020C7
:10228000D820002013B5174B1A78022A05D119203F
:1022900002B0BDE8104003F093BE1A78012A1FD0A7
:1022A0001B78042B1CD003F015FE044601A8FFF791
:1022B00085FF88B101990C4839B1FEF766FF2046C9
:1022C00002B0BDE8104003F00DBE03F031FD074839
:1022D000042103F0DFFAF2E7034803F029FDEEE7FB
:1022E00002B010BDC82000201C240020D4240020EF
:1022F00070B511F002060C460FD0FFF701FC364B0B
:102300009B6833B144F002013448BDE8704003F0EB
:10231000C1BABDE87040FFF7B5BF4A075AD5304B88
:10232000304D012204201A7001F00AFA4FF0805358
:10233000D3F88C311B6B98472B4B1860264B1B68CE
:102340007BB11C692B685BB19C4209D0A36A5B0717
:1023500004D5636A324604212046984701236376F8
:102360002C602B68214C5B681A78214B0220C3F843
:10237000D02101F0E5F9102001F0F8F901232370D4
:102380001C4B9B7813B90D2001F0F0F92B685B68AA
:102390009A680AB9DB6823B1174B0022DA61174A41
:1023A0001A60174B07221A60134B5A6900225A61B0
:1023B00099699A615A6942F0402242F002025A61D8
:1023C0001A20104B636003F091FDBDE870401920A6
:1023D00003F08CBD70BD00BFF4200020D424002089
:1023E00008200020D82000201C200020C820002029
:1023F00000200840F47D0000001004405100070652
:1024000000000460C91500002DE9F74311F480476E
:1024100005460C4636D003F05DFD8F4A95690346AC
:1024200065B3D5E90A6706F00A0207F0E0410A43FE
:1024300024D1D5E90A67D5E90A8929EA070328EAF8
:102440000602C5E90A2303F04DFDAB6853B156EA15
:10245000070307D0D5F808802869298E32463B4605
:1024600009B2C04724F48044002C00F00B827B4862
:10247000214603B0BDE8F04303F00CBA184603F060
:1024800031FDEFE78A0059D5754A764ED2F8CC3146
:1024900043F08003C2F8CC3133781BB1042001F043
:1024A000D1F8377003F016FD0646042002F070FEE6
:1024B0006D4B1A68824238D12A7E002A35D06B4A89
:1024C000126892B3644B1B6963B3DA68118840F6F3
:1024D0000302914205D0DB681A8840F604039A4251
:1024E00020D105F11400FEF757FD304603F0FAFC49
:1024F000FEF716FD60B14FF000732E6A00226FF4F4
:1025000080712846B047544B1B68A3B1FFF7BAFE51
:10251000EE6900224FF0806300212846B04724F086
:102520000054A1E705F11000DDE740F6C412C5E94B
:1025300004221860D9E744F00204E9E711F0020828
:1025400008D0FFF7DDFA444B9B68002B8FD124F0B5
:10255000020489E711F4806600F0988003F0BAFC69
:102560000546FEF707FD3C4B1F68002870D0002F82
:102570006ED03F4B3F494048404E42464FF0040921
:1025800083F8009003F00EFD284603F0ABFC3C48B6
:102590003C4D03F0CDFB4FF08053D3F88C311B6BD7
:1025A0009847304B3060012248461A7001F0C8F855
:1025B00038692860836A5B0703D5436A4246494607
:1025C00098470120FEF71EFE286801234376FEF798
:1025D000A3FF2B68996840F60A0C0A461046526819
:1025E00032B11588654503D0A5F60305012DF5D850
:1025F000427B4FF0010C6CF303024273FA681288BD
:10260000A2F6030292B20025624545600AD8356001
:102610001D4B0022DA6101201960FEF799FC24F4B9
:10262000806421E71A8F002AF2D0B3F844205D8736
:1026300022F4706222F00F0242F48072DD63A3F88C
:10264000442038334360437B65F303034373DFE780
:10265000284603F047FCE2E7F4200020D4240020C1
:102660000020084008200020042000201C2000201A
:10267000C820002059130000B82400201820002092
:10268000D8230020D82000200010044011F4006757
:1026900036D07E4D2B781BB1042000F0D3FF2E7076
:1026A000FEF73EFC40B17A4B18680022056A4FF0F5
:1026B00000736FF48071A847764D2B686BB14FF0B3
:1026C0008053D3F88C311B6B98472A68704B801A63
:1026D0001B68000BD86000232B606F496F480022F5
:1026E00003F060FC6E4B022119706E4B9B6813B1B6
:1026F0006D4803F0CFF8FFF7C5FD24F40064B3E69E
:102700000E0740F1B78003F0E5FB0646FEF732FC0A
:10271000002800F0AB80654B1A78150700F1A68001
:102720001B78180600F1A28001A8FFF747FD18B139
:10273000019B002B00F09A805D4D95F86130002BD5
:1027400040F09480AB7A3BB195F909300120A87232
:102750009840C0B2FFF7ACF90137032F05F120050F
:10276000F0D14F4D53482F7003F0E2FA304603F09A
:10277000B9FB514B49485A6900225A61D968DA605D
:102780004E4903F00FFC4FF08053D3F88C311B6B94
:1027900098474B4B1B68C01AAB68000BC0182B7BCB
:1027A00028BF4FF0FF30A86023B1464B1B68B0EB49
:1027B000C32F24D9444BD3F84031D9071BD5434B01
:1027C0001B681A0617D5424B40F609021A800022F0
:1027D0005A80597B012060F303015973197B62F31E
:1027E0000301197334495A60CA610B605A8802F4B4
:1027F0004062002AFAD001232B730023AB6000F063
:10280000F3FA344B002119600220FEF7A1FB0220ED
:1028100000F018FF102000F02FFF2F4B1B7823B97A
:102820001B4B1868503002F0F7FE2C4B9B7813B905
:102830000D2000F021FF6B7B23B1002305206B737B
:1028400000F000FF264B6B6000232B70154BD88BDC
:102850009B8B00B21BB298420CBF07200220FEF7F0
:1028600055FCFFF70FFD24F00804FDE5304603F0AA
:1028700039FBF6E74B007FF5F7ADFFF703FD24F0DA
:102880008044F1E503B0BDE8F08300BF08200020DC
:10289000D82000201820002065200000B824002047
:1028A000C8200020F4200020D4240020DC200020B8
:1028B00060200020D8230020001004405D2100008B
:1028C0001C200020142000200020084000000440AC
:1028D000482000200000046010200020F47D00004B
:1028E000F1220000054B5A68054B9A4201D1FFF7CF
:1028F000C9BC0448042102F0CDBF00BFC82000209D
:1029000009240000D42400202DE9F74F0746019345
:10291000DDE90C4B8946924603F0DCFA374E009015
:102920000025582303FB056898F83300020658D4A5
:10293000334803F0FDF9334B019A988B88F832A0A5
:102940000130C0F30B00988324F0C044C8F808207D
:10295000988BA8F8300024F480540BF0200044F049
:102960000204C8E90640802088F833000020C8E946
:102970001200C8F8400088F84400C8F8340088F80D
:102980003800A8F8500099F80C00C8F80C9000F036
:102990000F004FF0000A4FF0000B4FF0FF340228F9
:1029A000C8E908ABC8F81070C8F83C4006D1D9F89F
:1029B0000810C8F83410012088F83800002187F882
:1029C000FC101048414600F0E1FA0E4B1B684345ED
:1029D00001D1FFF757FC582303FB0566B6F93040D9
:1029E00004E00135082D9DD16FF00104009803F03B
:1029F00079FA204603B0BDE8F08F00BF182100200F
:102A0000D8230020F42000202DE9F0470C1E0546B5
:102A100091469A4646DB02F0B3FE2146804680226C
:102A20002846FEF7FDF9044618B190F833301B062E
:102A300006D4404602F0A6FF02200021BDE8F08740
:102A4000D0E9083249F00A064AF0E04733403A40FC
:102A5000134311D0404602F095FFD4E9082306EA5B
:102A6000020007EA030122EA000223EA0103C5E9A2
:102A70002C01C4E90823E1E782680C4B9A421EBF8F
:102A80008268C5F8A82083604046C5E9286702F03F
:102A900079FF4FF0FF3105F1500002F03DFDD5E91F
:102AA0002C01CBE700200146C8E700BFA3110000BE
:102AB000D3B5DDE90667CDE900670446FFF724FFDB
:102AC0000A2201464FF0E043204602B0BDE8D04064
:102AD000FFF79ABF30B5044D04460FCD0FC495E8FB
:102AE0000F0084E80F0030BD387E00002DE9F04370
:102AF0001D468FB00023CDE90233CDE904338C4B62
:102B00000446D3F8D4810F46164603F0DDFB1C289B
:102B10000ED1338843F60702934233D196F824301E
:102B2000022B28D867B9002420460FB0BDE8F083F7
:102B300003F0CAFB1B28ECD0002FF4D0002EF2D0FB
:102B40003A780123934013EA080FECD00021304675
:102B500000F0A2F9774B1B68C4E90176F3B9DFF8FE
:102B6000508203F0B7F998F80060012E074627D984
:102B700003F0B8F9D7E733696F4A23F0644393420F
:102B8000D1D1CFE740F60202934203D1F37B022B6F
:102B9000C8D9C8E7B3F5C15FC4D1F7E705AB009367
:102BA00003AA04AB02A93046FEF726FC0398502383
:102BB0004FF6FF720B2100F03EF9FF28CFD1B2E7AC
:102BC000002E69D100F076FC5C4ADFF8E8911368CA
:102BD00043F002031360564B594AC3F8CC2106A8B0
:102BE00002F03CFD99F8013056495748089306AA6F
:102BF00002F03CFD5549564806AA02F037FD06A8EA
:102C000003F0C6F999F80030524A0793192106AB30
:102C1000514803F079F9514A514806AB1A2103F0A3
:102C200073F9504950483346324603F055F833465D
:102C30004E494F48324603F04FF84E4BD3F8B43F5D
:102C400013F4402F05D04C4A4C483346042100F081
:102C5000E7FC99F8023013B10D2000F087FD4848D9
:102C600000F05EF9474800F05BF9474A474B072000
:102C700082F86000464A00211160464A19701160CE
:102C8000454A996005201060444A998111700420DA
:102C9000434A5A60FEF75CF998F800305A1C88F8ED
:102CA0000020404A384642F8234003F01BF91DB982
:102CB00006A8FFF70FFF06AD2B6823604FF4FA73E9
:102CC000EA69E360AB69A3622B8A22636A68638363
:102CD000012363764ABB40F6C412C4E9042223767A
:102CE000EA68314B002A14BF1146194621626A690D
:102CF000002A14BF114619466162AA68002A18BF4B
:102D00001346E361C822002104F1380004F0D4F82E
:102D1000002104F1500002F0DFFB002323491A4692
:102D200004F1B80002F0D8FFFEE60023D5E700BFAB
:102D3000002008400C2000200F0000010020094066
:102D4000110000E0E5120000D4240020C91C00009E
:102D50007C2400205D210000B824002079120000AE
:102D600060240020E52800001C240020E51A000053
:102D7000D823002000400050A9130000E0200020CC
:102D8000FC200020F420002060200020C82000202B
:102D90001C2000201820002014200020DC2000200F
:102DA000F122000020200020710F0000851100009A
:102DB00010200020F47D0000024A13691840C3432C
:102DC0001361704700100440064B1A68002AFCD1BA
:102DD000DA611860DA69002AFCD00022DA615868EA
:102DE000704700BF00100440104A136823F40873B2
:102DF00023F0020343F4087313600D4B03225A655A
:102E000041F230021A66502101229A6519664FF488
:102E1000CA619A6519664FF486519A6519669A6572
:102E2000A3F50053C3F80021704700BF0000046001
:102E300000600440704770B506460025E8B2834242
:102E400004D956F82540B4F1FF3F01D1FF2004E03A
:102E500014408C4205F10105F0D170BD1E2896BFCB
:102E60000C4B002033F81000FF2908D120F48060BB
:102E700040F0C00040F2037343EA0040704711B9CC
:102E800040F03000F6E7CB074CBF40F0100040F0B8
:102E90002000EFE7587E000000207047024A936848
:102EA0001840C34393607047001004400F4B00224A
:102EB00083F8202001229A7402221A75032283F8D3
:102EC0006020042283F86A20052283F86C20062201
:102ED00083F86B2007225A77082283F829204FF0C5
:102EE0000453034AC3F88424704700BF0004002140
:102EF0008141002110B5074C23783BB906490748AA
:102F00004FF4387204F018F801232370BDE8104024
:102F1000FFF7CCBF10250020987E00004C40002118
:102F200010B5044602F0D6FF002323606360BDE8BD
:102F3000104002F0D7BF00BF38B5044602F0CAFF08
:102F4000256825B12B6823602BB100225A6002F05E
:102F5000C9FF284638BD636002F0C4FF284638BD6B
:102F600070B515460C46064602F0B4FF6B68C4E91E
:102F700000532BB11C606C60BDE8704002F0B2BF22
:102F800034606C60BDE8704002F0ACBF38B50546F7
:102F90000C4602F09FFF6B680022C4E900232BB1AE
:102FA0001C606C60BDE8384002F09CBF2C606C6017
:102FB000BDE8384002F096BF38B505460C4602F031
:102FC00089FF2B680022C4E900322BB15C602C60C1
:102FD000BDE8384002F086BF6C602C60BDE8384028
:102FE00002F080BF38B50C46054602F073FFD4E905
:102FF000002332B153603BB11A60BDE8384002F0A3
:1030000071BF6B60002BF7D12A60BDE8384002F039
:1030100069BF00BFFF2800D1704770B50B4E044652
:1030200025B200F015F83368204653F8251000F05B
:103030001BF8736853F8252012B1002243F82520AD
:10304000B368002243F8252070BD00BF147E000045
:10305000FF2808D000F1805000F50130800083780F
:1030600003F0FB0383707047FF2844D02DE9F84339
:1030700000F1805303F501339D0011F002082B6825
:10308000DBB206460C460CBF0127002721F0FF09E2
:103090009BB1B8F1000F08D0184840EA86000760DD
:1030A000C5F800900020BDE8F88300F1804303F5E7
:1030B000083301F001041C70EEE702F00BFFC9F3C6
:1030C00007236B704FEA1962C9F30743AB70EA70CC
:1030D00002F008FFB8F1000F06D106F1804303F5B6
:1030E000083304F001041C70044B43EA86030020FB
:1030F0001F60BDE8F8834FF0FF307047001A44426C
:10310000FF2849D02DE9F84300F1805303F501333E
:103110009C0011F002092368DBB20CBF4FF00108DC
:103120004FF00008934206460D4621F0FF0715D0E8
:1031300022B13A4322600020BDE8F883B9F1000FC4
:1031400006D100F1804303F5083301F00101197045
:10315000134B43EA8603C3F80080EAE702F0BAFEA5
:10316000C7F307236370C7F307433F0EA370E770ED
:1031700002F0B8FEB9F1000F06D106F1804303F565
:10318000083305F001011970054B43EA860300205E
:10319000C3F80080BDE8F8834FF0FF30704700BFF0
:1031A000001A4442FF2805D000F1804000F50830A5
:1031B000C9B20170704700BF704700BF0020704760
:1031C000002070470128F8B5044639D008B1002026
:1031D000F8BD01F0DBFF454BD3F8B43F13F4402FAB
:1031E000C3F3814509D1424B1C6934B1414802F017
:1031F0009FFD02F01BF82846A0473F4D95F8383157
:10320000002BE4D03D4BD3F89022802122F08002A5
:10321000C3F89022C3F8981202F05CFE95F846318C
:10322000013BDBB285F846311BB9AB6823F00803DC
:10323000AB6002F057FE002385F838310020F8BD5E
:1032400001F0A6FF0128C2D02B4D95F83831002B94
:10325000BDD1264ED6F8B43F13F4402F30D1244BC5
:103260001F69002F3AD001F0CFFF502003F072F811
:103270002046B84705F1940002F0E2FCD6F8B43FCE
:1032800085F8384113F4402F0CD0AB689B0609D465
:103290001A4B8022C3F89822D3F8902242F0800281
:1032A000C3F8902202F016FEAA6895F8463142F063
:1032B00008020133AA6085F8463102F013FE86E762
:1032C00001F0C6FFD6F8B43F85F8384113F4402F1B
:1032D000DBD1074B1B69002BE4D1D6E701F0B8FF27
:1032E000D6F8B43F85F83841CFE700BF0040005022
:1032F000007E0000401A0020AC1900200020084089
:1033000070B502F0E7FD054601F07AFF0028FBD01A
:10331000184C02F0DFFD94F84631013BDBB284F833
:1033200046311BB9A36823F00803A36002F0DAFD5D
:103330002846002384F8383102F0D4FD0E4B0220D9
:103340009E68B047246805466CB1A368DB064FF061
:1033500000014FF0100003D5D4E90332984710B9AB
:103360002468002CF1D125B133460320BDE870401C
:10337000184770BDAC190020007E000008B501F0B0
:1033800069FFBDE80840FFF7BBBF00BF38B52B4B56
:10339000D3F89452D3F8902222EA05011540C3F8DD
:1033A000901269061DD5264BD3F8B43FC3F3815361
:1033B000022B35D0042001F0EBFE831E012B1CD91B
:1033C000012838D01F4C24685CB1A3689A064FF0DE
:1033D00000014FF02000F6D5D4E9033298470028C9
:1033E000F1D02B0603D4154BC3F8985238BDFFF724
:1033F00087FF124BC3F8985238BD124C01F0CEFE35
:1034000002F068FD94F84531013BDBB284F84531A8
:103410001BB9A36823F00403A36002F063FDD2E7A5
:10342000094B186801F032FF042001F0B1FE831E41
:10343000012BC5D8E1E701F0B1FEC3E70020084049
:1034400000400050AC190020A8190020034B0022B6
:1034500093F8410183F84121704700BFAC19002067
:10346000024B012283F84121704700BFAC190020B4
:10347000014B9868704700BFAC190020022905D0A5
:10348000012814BF00204FF47A707047012840F2E1
:10349000EE2314BF00201846704700BF044B93F87A
:1034A00041211AB1D3F86C3103B11847704700BFFE
:1034B000AC190020F0B54D4C94F8423185B013B1F1
:1034C000002005B0F0BD012384F8423101F0D8FEA0
:1034D0004749484E84F87001D1F8B42F337B84F803
:1034E000413112F4402F7368C4F86C31C2F3814744
:1034F00014D1336993B1D1F8AC5F02F041FCC5F34C
:10350000066564223C493B4605FB02F2B2FBF0F241
:1035100004F1940002F0E0FB01F026FE002568466D
:1035200002F046FB354936488DF800506B462A4676
:103530000195029502F0D0FB684602F039FB314953
:1035400031488DF8005008226B460195029502F033
:10355000C3FB2E4A2E482B46322102F0D5FC2D4BC0
:103560002D4AC3F890522D482B462C2102F0CCFC5A
:103570001F4B727BD3F8B43FC3F381530AB1032BC3
:103580002DD00D2222FA03F3DA072CD5214AD2F8E6
:10359000903243F04003C2F8903202F09BFCA268E4
:1035A00094F8453142F004020133A26084F84531B9
:1035B00002F098FC0E4BD3F8B03F5B0780D402F0CA
:1035C00089FCA26894F8433142F001020133A26001
:1035D00084F8433102F086FC002005B0F0BD0123E1
:1035E00084F83931D2E701F0D9FDE3E7AC190020C6
:1035F00000400050007E00007D330000B931000023
:10360000B81900200D3F0000FC1900208D33000088
:10361000841A002000200840493B0000A01A002026
:1036200058B152B110B50C460146C1E902420448F6
:103630000B61FFF7ABFC002010BD6FF0020070477C
:10364000AC19002010B5044602F044FC094A1119D7
:1036500091F84331013BDBB281F843312BB99368D8
:103660000121A14023EA0103936002F03BFC00200A
:1036700010BD00BFAC190020F8B5044602F02AFCCA
:103680002B490A19054692F84A31013BDBB282F810
:103690004A31DBB9274A02EB8400468812F924003C
:1036A00012F82440002816DB620637D44FF080530E
:1036B0003046D3F8B8319B699847304602F01AFF7C
:1036C0000228FAD104F03F00142820D9284602F03D
:1036D00009FC0020F8BD4FF080573046D7F8B831CC
:1036E0001B6A9847D7F8B83130469B6A9847D7F895
:1036F000B83130461B6B98470F4B104A0121996235
:10370000936A9907FCD504F03F001428DED8FFF730
:10371000B3FF284602F0E6FB0020F8BD58361846F5
:1037200051F82630984704F03F001428CED8EEE731
:10373000AC190020788100000020086000200840BB
:1037400010B5044602F0C6FB074A01219368A14068
:103750001444194394F843319160013384F84331A0
:1037600002F0C0FB002010BDAC1900202DE9F04193
:103770002F4F044602F0AEFB3A19054692F84A3143
:10378000591C82F84A11DBB92A4E16F8248008F039
:103790003F00142838D906EB840618F0800F74888F
:1037A00014D118F0400F38D14FF080532046D3F891
:1037B000B8315B699847204602F0C8FE0128FAD16B
:1037C000284602F08FFB0020BDE8F0814FF08056C4
:1037D0002046D6F8B831DB699847D6F8B83120468C
:1037E0005B6A9847D6F8B8312046DB6A9847124B97
:1037F000124A01219962936A9B07FCD5284602F080
:1038000071FB0020BDE8F08106EB8406FFF7AEFFF8
:1038100018F0800F7488C4D0D8E75834012057F8C6
:1038200024309847284602F05DFB0020BDE8F08177
:10383000AC190020788100000020086000200840BA
:1038400001282DE9F84340F0E080714DD5F834614E
:10385000012E40F0D7800223C5F8343102F038FC45
:103860002C687CB1A368DF074FF000014FF0010026
:1038700005D5D4E903329847002840F0AF8024688A
:10388000002CEFD195F85A7195F85931003F18BFC7
:1038900001270BB147F0020795F85831002B7CD176
:1038A000012001F075FC012803D095F83831002B78
:1038B00076D00020FFF786FCAB68D90774D4DFF818
:1038C00054914FF08058D8F8D83148469B689847B3
:1038D00004280446F7D0002001F0C4FC012C05D1D7
:1038E000D8F8D8314B485B682146984701F044FC32
:1038F0004FF080533846D3F8B8315B69984795F854
:103900005431002B54D195F85331002B58D1424BF0
:1039100001229A6203F160430022DA600323C5F8B2
:103920003431384602F012FE0128FAD13B4B2C68A4
:10393000DB6A74B1A3685A074FF000014FF004002E
:1039400004D5D4E903329847002854D12468002CC8
:10395000F0D10027324B0122DA60A3F500539642E2
:10396000DB6A4BD002F0F2FC2C6874B3A3681B072F
:103970004FF000014FF0080003D5D4E90332984717
:10398000B0BB2468002CF1D10123C5F8343102F01A
:10399000A7FB47BB2046BDE8F88347F004077FE755
:1039A0001E46AB68D9078AD5012001F05BFC9FE772
:1039B0004FF4806001F05EFC95F85331002BA6D0E7
:1039C0004FF4816001F056FCA1E701233C46C5F8A5
:1039D000343102F085FB2046BDE8F8830123C5F8A9
:1039E000343102F07DFB4FF0FF342046BDE8F88310
:1039F0004FF0FF34C8E74FF0FF37ABE73046FFF733
:103A0000E1FBAFE76FF00404C4E76FF00104C1E726
:103A1000AC1900200040034000200860002009404D
:103A200000400940022807D0032804D108B500F05F
:103A3000E5F9002008BDFEE700F054B838B502F003
:103A400049FA094B93F8383104462BB92046012531
:103A500002F048FA284638BD01F0C0FB0546204672
:103A600002F040FA284638BDAC19002070B502F0CB
:103A700031FA1A4C054601F0C3FB002384F83831B3
:103A800002F028FA94F84631013BDBB284F8463163
:103A90001BB9A36823F00803A36002F023FA2846A9
:103AA00002F020FA0E4B02209D68A84724680646C3
:103AB0006CB1A368DB064FF000014FF0100003D596
:103AC000D4E90332984710B92468002CF1D126B10B
:103AD0002B460320BDE87040184770BDAC1900208C
:103AE000007E000038B5144C94F8393113B9134BEB
:103AF0009B7BEBB102F0EEF994F83B31B3B90125B1
:103B000084F83B5102F0EEF90220FFF719FE0D2078
:103B1000FFF72CFE0A4B5A6862B984F83A21094A29
:103B2000402191630020D1631D6238BD02F0DAF9B3
:103B3000002038BD284638BDAC190020007E0000AA
:103B400000800C4000500C40F8B5A54DA54A95F8F2
:103B50003A310024D4633BB1012B00F09D80022B4D
:103B600000F0A880032B61D0D5F83C319E4C9F4FCC
:103B70000526062B00F23281DFE803F0372A1F1CEE
:103B8000120470000020032385F83A3101F0CAFACC
:103B9000954B974801229A65BDE8F84002F050B86D
:103BA0000023C5F83C61A365A36D9A07FCD4D5F842
:103BB0003C31DEE700200223E6E703220023C5F8BC
:103BC0003C21A365A36D9907FCD4D5F83C31D0E71F
:103BD0000124022085F83A4101F0A4FA824B84487E
:103BE0009C65BDE8F84002F02BB842F62A230F226C
:103BF000FA603B6101F076FA01236365636D9B0710
:103C0000FCD595F839210123FB61002A42D000221E
:103C1000C4F8842003223A600022C5F83C31A26532
:103C2000A36D9807FCD4D5F83C31A2E76F4BD5F8CB
:103C300010219B68A3F5C063002A83EAE371B8BF33
:103C40005242A1EBE3719142C5F82C3100F385801B
:103C5000002385F830310623C5F83C31624A002341
:103C600053659365536D9B07FCD45F4A946D14F0C4
:103C70000204FBD15B495F4BCC6301225A600D20EB
:103C8000FFF7FAFC0220FFF7DDFCC5F83C4185F8A0
:103C90003B41F8BD0323BDE795F8400101F078F9F9
:103CA000554B85F840419B7B002BD4D00223C5F8AF
:103CB0003C315BE74D4B9C6801F0ACF9C5F8140151
:103CC00001F0B0F9C5F8180101F0B4F9A4F5C0622B
:103CD000C5F82801C5F81021002AB9D095F830316F
:103CE000002B4AD1D5F81831C5F82401C5F82C218C
:103CF000002AA8BF022102EB4202B8BF6FF0010107
:103D0000521848BF033203EBA203D5F81401002B6D
:103D1000C5E9470336DD1E2B0ADDD5F82421002A2C
:103D200044D1332BA8BF3323153B0322C5E94832C6
:103D300001F088F9012001F0ADF9D5F8200101F07A
:103D400095F9A4F2FF54D5F8240101F0B7F9022C3B
:103D500081D90423C5F83C3108E7D5F8140101F0F6
:103D600071F9D5F8180101F081F9D5F8280101F0B1
:103D7000A5F9012385F830316DE7D5F82031D5F864
:103D80002C21B5E7D5F82421032A1DD06FF00902B4
:103D90009342B8BF13460128B8BF01200B33013846
:103DA0000322C5E94703C5F82421C1E7292BA8BF91
:103DB00029233E28A8BF3E200B3B01300022C5E945
:103DC0004703C5F82421B3E76FF013029342B8BF4D
:103DD000134615330022C5E94832A9E7FEE700BFC4
:103DE000AC19002000500C4000600C4000400C401A
:103DF000FC19002000800C40007E0000F8B53D4D0D
:103E00003D4C3E4F0526D5F83C31062B70D8DFE8F7
:103E100003F04F4239362E200400374A0023536501
:103E20009365536D9B07FCD4334A946D14F00204E0
:103E3000FBD13349334BCC6301225A600D20FFF78D
:103E40001BFC0220FFF7FEFBC5F83C4185F83B4117
:103E5000F8BD0020032385F83A3101F063F9264BC1
:103E6000294801229A65BDE8F84001F0E9BE002327
:103E7000C5F83C61A365A36D9A07FCD4C3E7002095
:103E80000223E8E703220023C5F83C21A365A36DC4
:103E90009907FCD4B7E70124022085F83A4101F0E4
:103EA00041F9154B18489C65BDE8F84001F0C8BEC3
:103EB00042F62A230F22FA603B6101F013F9012335
:103EC0006365636D9B07FCD595F839210123FB6180
:103ED00062B10022C4F8842003223A600022C5F8AF
:103EE0003C31A265A36D9807FCD48CE70323F3E76C
:103EF000FEE700BFAC19002000600C4000400C4001
:103F000000500C4000800C40FC19002010B40C4AFA
:103F1000936D9B07FCD50B4BD3F83C31012B0A4B1F
:103F20000CBF202201229A61074B084A0821002475
:103F300001201C6091635DF8044BD16318607047E9
:103F400000600C40AC19002000400C4000500C40B8
:103F500010B4074C84460FCCACE80F000FCCACE893
:103F60000F002368CCF800305DF8044B704700BFA9
:103F7000CC810000F8B50768044601F0ABFF7E7AFB
:103F8000054626B12846BDE8F84001F0ABBF012345
:103F90007B72204600F0EEFE606800F001FF2046D4
:103FA00000F0C6FC2046314600F006FF2846BDE87A
:103FB000F84001F097BF00BF2DE9F04F046885B0CD
:103FC00080460F461546994613B10023C9F80030C4
:103FD00001F080FFE3798246002B00F0C48094F862
:103FE0006460002E40F0BA80002D00F0B2804046A0
:103FF00000F064FC0123A667A663A672267384F80A
:1040000064304046C4E91A752567FFF7B3FF4046A0
:1040100000F08EFC04F14C0601E0002B6DD003A9EA
:10402000304601F079F9256F039985428446A06FE7
:104030002CBFE346AB465A46384428BF654602F0DB
:104040007BFF5946304601F04DF9236FA26FA3EB79
:104050000B035A44002D2367A267DEDC2579022D6D
:1040600018D0002B4CD0504601F03CFF2379E3B12F
:10407000002501F02FFF2379012B05D0B9F1000FA6
:1040800002D0A36FC9F8003001F02CFF284605B01C
:10409000BDE8F08F00232367A36684F864305046A0
:1040A00001F020FF2379002BE2D1216F04F17C0085
:1040B00000294BD00E9901F02FFA08B10123237388
:1040C00001F008FF0646404600F0F8FB002340469A
:1040D0002367A36684F8643000F02AFC227BA37A6D
:1040E000002A14BF6FF00C0500253046002B18BFC6
:1040F0006FF00D0501F0F6FEBBE72579022DC9D062
:104100000023012DA76E84F86430A366ABD125741B
:10411000504601F0E7FEE67BA6B9237C93B1AA46A0
:1041200001F0D8FEA4F80FA001F0DCFEA36CA26F92
:104130000096D4F8CC5039464046A847237CE67315
:10414000002BEDD101F0C6FE82468CE701F0E4F9C8
:104150008EE701F0C7FE6FF0090597E701F0C2FE98
:104160006FF0080592E701F0BDFE6FF00E058DE7D8
:104170002DE9F047914684B007460E469A4615460B
:1041800000244FF0FF3807E0CDF80080FFF714FF60
:10419000039B1C44ED1A30B92A1B311903AB384676
:1041A000002DF1D12846BAF1000F01D0CAF8004025
:1041B000B9F1000F08BF6FF0090004B0BDE8F08747
:1041C00010B50468646814F0FF1F82B003D1FFF7D4
:1041D000CFFF02B010BD4FF0FF340094FFF7ECFEAC
:1041E00002B010BD2DE9F04F83B0D0F80080D0F8B8
:1041F00004B00191054614461E460BB100221A6018
:10420000002C00F0998001F077FE814601F062FEFB
:1042100098F807200746002A00F09F8098F8E820C9
:1042200002F0FF01002A40F08A80019BC8F8EC30C0
:10423000012208F5807AC8F8F040C8F8F440C8F8C0
:10424000FC10C8F83C1088F80D1088F80B1088F89E
:10425000E820504601F060F9584600F0A7FDB9F19A
:10426000000F04D198F805B0BBF1000F27D0284605
:1042700000F0B2FA384601F035FE98F805207AB120
:1042800016B1D8F8FC20326098F80B20002A5BD1D8
:1042900098F80D30002B5DD1002003B0BDE8F08F01
:1042A0000C99504601F038F910B1012288F80D2020
:1042B000284600F0BBFB002288F8E820E0E73846FB
:1042C00001F010FED5E90089D8F84430DA0607D5A8
:1042D000D8F84830D8F840705A4610212846B847D8
:1042E000D8F8FC20019B21461A44484600F078FD8E
:1042F000D8F8FC20241A0244C8F8FC20F2D1484621
:1043000000F088FD0028FAD0484600F05FFAD8F89F
:1043100044309B0607D5D8F84040D8F848302846A6
:1043200000222021A047002388F8E830002EB3D0D7
:10433000D8F8FC303360AFE76FF00900ADE701F06B
:10434000D1FD6FF00800A8E7002288F80B206FF07D
:104350000D00A2E76FF00C009FE701F0C3FD6FF0C6
:104360000E009AE72DE9F04F85B0154642680468C3
:10437000019281460F46984613B10023C8F80030D9
:10438000002D76D001F0A6FDE3790646002B78D00B
:1043900094F8E82002F0FF03002A6DD1C4F8FC3045
:1043A000E3636373E3720123019884F8E830C4F88F
:1043B000EC70C4F8F050C4F8F45000F0F7FC30464C
:1043C00001F090FD04F1D00602E0D4F8F43063B3BC
:1043D00001F080FD03A90546304600F0F3FFD4F854
:1043E000F430D4F8FC1083422CBF82469A468446AF
:1043F00052463944039834BF9B46E34602F09CFD85
:104400005146304600F0C0FFD4F8F410D4F8FC3028
:10441000A1EB0A015344C4F8F410C4F8FC30284658
:1044200001F060FDBBF1000FCFDC01F053FDD4F8CB
:10443000FC3005468BB900236FF00F06B8F1000F72
:1044400001D0C8F80030002384F8E830284601F095
:1044500049FD304605B0BDE8F08F019800F0A6FC9C
:10446000484600F0B9F9D4F8FC300026002BE5D11D
:10447000E1E76FF00906ECE701F034FD6FF00806A4
:10448000E7E701F02FFD6FF00E06E2E710B40468D5
:1044900094F805C0019C0194BCF1020F03D05DF8B3
:1044A000044BFFF79FBE5DF8044BFFF75BBF00BFF7
:1044B00010B582B04FF0FF340094FFF7E7FF02B071
:1044C00010BD00BF704700BF70B5054682B068469A
:1044D0000C4601F04DFC95F83430424A4248D35C1A
:1044E00095F8362095F83510825C4048415C4FF0D5
:1044F00080500B43D0F8D0010199466820681343DF
:104500002A6BB04723683A4840F2F2725A6494F832
:10451000543094F85510374A415CD35C22680B4301
:104520005363E369012B24D02268136B23F4004307
:104530001363E3692268012B13D0136B23F48043C8
:1045400013632268D36A43F01003D3622268136BAB
:1045500043F001031363E36B0BB1A36B93B902B098
:1045600070BDE36AFF2BE8D0136B43F48043136301
:10457000E7E7A36AFF2BD7D02268136B43F400430D
:104580001363D6E7266801F0A5FCB36C23F00103A2
:10459000B36401F0A7FCD5F85831E26B5B68196889
:1045A000CA6219684FF08056C1F80425E16B18689B
:1045B000D6F8D43191FAA1F15B68B1FA81F1022207
:1045C0009847D5F85821A16BD6F8D43152685B686A
:1045D000106891FAA1F10222B1FA81F1984702B074
:1045E00070BD00BF0C820000008200000882000045
:1045F000F0810000F8810000042801D000207047FD
:1046000008B5D2E90001FFF75FFF002008BD00BF39
:104610002DE9F041674B1B78834284B040F2AD80B6
:10462000654B03EBC00253F830400B785768012B01
:104630000E46904600F09D807378012B03D1B3683D
:10464000002B00F09A8001F045FCE579002D40F048
:104650009E800123E37101F045FCA560E58165744E
:1046600025603388A380337DA37173683269C4F8F1
:10467000CC30B368C4F85031F3686264B269236423
:104680002263B28BA286B27F84F83620326AA2649B
:104690004FF0FF32C4E90E55A566C4F8F450256703
:1046A000C4F8F050E566C4F8EC206567C4F8F8502B
:1046B00084F8645084F8E850C4F85851002B62D054
:1046C00097F84000FFF752F8D7E9031204F14C00C5
:1046D00000F0FCFDD7E9051204F1D00000F0F6FD72
:1046E0004FF080533868D3F8D031DB689847D8F85A
:1046F000045046F202016A6C95F82400FEF700FDB2
:10470000AA6C2E4995F82000FEF7FAFCEB69012B04
:1047100042D000F077FEC4F85801D8F804102046C3
:10472000FFF7D2FE4346264A042104F5AE70FEF799
:1047300077FF01A801F02CFC3A7A796801ABCDE94A
:10474000018204F114001F4A01F0DEFB002104F194
:104750007C0000F0C1FE002104F5807000F0BCFE7A
:10476000D7E90C213B680B604046536004B0BDE8BC
:10477000F0814B68002B7FF45FAF4FF0000840469C
:1047800004B0BDE8F081104AC4E9102398E701F0B5
:10479000A9FB4FF00008F2E7EA6C084995F82800F9
:1047A000FEF7AEFC2A6D95F82C0046F20201FEF7EA
:1047B000A7FCAEE7927D0000947D0000026000201F
:1047C000F9450000B94A0000C54400000268136BB7
:1047D00023F4807313637047F0B50468D4F8F8309D
:1047E00083B0002B4FD163794668022B054655D024
:1047F000D4F8EC30D4F8FC20D4F8F400C4F8F80075
:104800001344019300283ED03268936B23F4006375
:104810009363636CDB0609D5276C3FB1227A2AB912
:104820002846A36C1021B847D4F8F800B0F5806F83
:104830002BD8013843F6F07101EA0011019BD4F83E
:10484000582118445268336B186010681A4A9A60ED
:104850009A680A439A60B36B8362366801F03AFB48
:10486000B36C43F00203B36401F03CFB237A53B909
:104870002D680220FEF764FFD5F8EC30B3F1805FBD
:1048800016D30123237203B0F0BD4FF48063C4F844
:10489000F83043F6F07140F2FF30CFE701A904F1A0
:1048A000D00000F039FDC4F8F8000028EBD0ABE7E9
:1048B0000420FEF745FFE4E7018000C0F8B5046876
:1048C000636F03B9F8BDD4F8583145685E68EA6B88
:1048D0003368DA622F6801F0FDFABB6C23F0010344
:1048E000BB6401F0FFFAD4F85831E96B5A681268DA
:1048F0004FF08053C2F80415D3F8D43130689B6967
:1049000091FAA1F1B1FA81F19847626FE37C111A33
:104910004BB9236F9B1AA26F03440A442367A26713
:1049200000236367F8BD04F14C0000F02DFDF7E7AC
:104930002DE9F043D0E90048D4F85831D8F8346074
:104940005F68637A83B013B903B0BDE8F0830546AE
:10495000FFF7B4FF636F04F14C09002B3AD1A36E4B
:1049600013B1236F002B35D1484601A900F02AFD71
:1049700001236067E3740028E6D00023B0F5806F60
:10498000A37349D801380201D4F858313C685968FA
:10499000019B03447360244BB360B3681343D8F89E
:1049A0003C20B36092FAA2F2B2FA82F20123934061
:1049B000A3610B68D8F83C209A62D8F8004001F057
:1049C00089FAA36C43F00103A36401F08BFA03B0EE
:1049D000BDE8F083484600F09DFC236F9842C3D2A7
:1049E0002379022BC0D0A36E002BADD02846FFF751
:1049F00065FF4846256F00F08DFC2D1A6567484617
:104A0000A56ED4F8789000F085FC48440544002356
:104A1000606F0195E374AEE74FF48063636743F61C
:104A2000F07240F2FF30AFE70180000CF8B5046887
:104A3000D4F8F8500DB92846F8BDD4F85831456877
:104A40005E68AA6B3368DA622F6801F043FABB6CC8
:104A500023F00203BB6401F045FAD4F85831A96B86
:104A60005A6812684FF08053C2F80415D3F8D43155
:104A700030689B6991FAA1F1B1FA81F198476379A5
:104A8000D4F8F820022B0546A2EB00010FD0D4F891
:104A9000FC301944D4F8F430C4F8FC109B1A0344D9
:104AA000C4F8F4300023C4F8F8302846F8BD04F107
:104AB000D00000F017FCF5E72DE9F04FD0E90067D2
:104AC0003B68D3F84080C3F8448018F4F06F87B097
:104AD000054619D018F4806F3B6840F0F4805C689C
:104AE000736C04F00F042340B3FA83F24FF00041DB
:104AF000D140194040F0A480B4FA84F24FF0004352
:104B0000D34023405B42B363D6F85831FA6B5B68FD
:104B10001B68D3F80415114203F2045308F040094E
:104B20002CD1B9F1000F56D02846D5E9004AFFF73D
:104B3000C5FEE37C002B00F08E80D5F804A0DAF8E7
:104B400000209369D90621D4D4E91431B3EB010BC9
:104B50001CD0296801F14C03039302E0BBF1000F64
:104B600014D011680398C9B200F0EAFBDAF800200B
:104B70009169C9060BF1FF3B08D4EFE72846D5E958
:104B8000004AFFF79BFEB9F1000FD2D194F86430D0
:104B9000C3B12379022B15D0A279012A00F0C98074
:104BA000226F7AB90020012BA16E84F8640020677F
:104BB000A06640F0C380A36CA26F0090D4F8CC40F4
:104BC0002846A0472846FFF7B3FED6F858315B6861
:104BD0001B6803F204531A68BB6B1A4203D0D6F861
:104BE000F830002B58D118F4006F26D0396801F145
:104BF00018031A6812F00802FBD10B6B23F48073C0
:104C00000B63337A93B1736C32729B0605D5346CA7
:104C10001CB1B36C20212846A0472C680220FEF767
:104C200011FDD4F8EC30B3F1805F7AD33A68936B1E
:104C300023F40063936373793BB307B0BDE8F08F4F
:104C4000D6F84090B9F1000F3FF456AFB36C32681C
:104C50002846C84750E7DAF800108B69DB0695D480
:104C6000236F73B1A36FA26E0968D154DAF80010F4
:104C7000A26F8869236F0132013BC006A2672367D8
:104C8000EFD5E37C002B81D057E706F5807007B0A5
:104C9000BDE8F04F00F0C0BCD5E9009A2846FFF708
:104CA000C5FE2846FFF798FD99F80530012B4AD03C
:104CB000D9F8F830002B96D1DAF80020936B43F442
:104CC000006393638FE7D6E91442A41A9A69D00669
:104CD00003F1180118D4BCB106F14C0900E09CB1F5
:104CE00019684846C9B200F02BFB3B689A69D206A6
:104CF00004F1FF3403F11801F1D505E01A68D2B2CE
:104D00008DF817209DF817200A68D006F6D532686E
:104D100001323260B27B002A7FF4E1AE0122B2732D
:104D2000DDE60420FEF78EFC4FF0FF33C4F8EC30D4
:104D30007CE7B9F1000F7FF435AF31E704F17C0077
:104D400000F06AFC3EE7D9F8F4000028B0D199F8E9
:104D5000E830002BACD089F8E800D9F84830D9F811
:104D6000FC20D9F8EC100090D9F850412846A04713
:104D70009EE700BFD0E90023116C59B1526C1207B5
:104D800008D51A684FF48061516419688A6B42F43F
:104D900080628A631A68936B43F0400393637047A1
:104DA0000268136B43F40073136370470268136B5C
:104DB00043F480731363704738B503460C460220F2
:104DC0001D68FEF7BDFC24B1D5F8EC30B3F1805F6F
:104DD00000D338BDBDE838400420FEF7B1BC00BFA9
:104DE0002DE9F0410F4691B10646551E00244FF0C3
:104DF000805802E00134A74209D0D8F8D03115F824
:104E0000011F9B69306898470028F3D12746384630
:104E1000BDE8F0810368986980F00800C0F3C00025
:104E2000704700BFF8B50F4BD3F8E040C3F8E0403F
:104E3000BCB10D4F0D4E0125B4FA84F0331A7A68D7
:104E4000C0F11F0005FA00F152F820209B0024EA6F
:104E5000010422B11B685B03C0B200D59047002C4F
:104E6000EAD1F8BD00200240147E00001F040210A9
:104E70002DE9F04FA7B001F02DF83C4B1D78002D27
:104E80006ED14FF0010883F80080394F01F02AF805
:104E9000FEF710FB0820FEF769FC03A801F078F884
:104EA000FA68049203AB334A3348102101F02CF81E
:104EB000324B334A93F800A016780FFA8AF3B245C2
:104EC0005446AB460DF1180901931AD809EB8A052F
:104ED00002E00134B44214D83A6852F8241021F0A8
:104EE000FF028B0745F8042BF3D408FA04F2E0B272
:104EF00001F0010101344BEA020BFEF753F9B44211
:104F0000EAD9204A2049C2F8D0B0D1F8B42FC2F370
:104F10008152012A17D0019B0AF18050721CA2EB2A
:104F20000A0200F5013009EB83019200800002F0D3
:104F300003F8164A136823F47C5343F400531360B8
:104F400027B0BDE8F08FD1F8A82F26AB120E03EBE7
:104F5000820252F8801C41F0070142F8801CDAE717
:104F600027B0BDE8F04F00F0BDBF00BF30250020E6
:104F7000147E0000254E000014250020257E000030
:104F8000247E000000200240004000500030094014
:104F90001C4A1D4B70B59468D3F8B43F4BF2F52210
:104FA00003F4402302FB04F4B3F5802F05464FEAD7
:104FB00014240FD02DB9154B1B6923F07F432344D4
:104FC0005C084FF080532046D3F8F031BDE87040C4
:104FD0005B6C18470E4BD3F88C339B03EAD44FF02D
:104FE0008056D6F8EC311B68984701F063FAD6F882
:104FF000E031DB6898472311C01000FB03F304EB9A
:10500000E334D7E700400C40004000500020094046
:1050100000100050024B186BC0F30720704700BF10
:1050200000A00C40024B5868C0F38440704700BF9A
:1050300000A00C40024B186AC0F38120704700BFEB
:1050400000A00C4010B54FF0805382B0D3F8A431CB
:1050500080B200905C68044808234FF47F423021FE
:10506000A04702B010BD00BF00A00C4010B54FF02B
:10507000805382B0D3F8A43180B200905C680448B9
:1050800012234FF4F8020421A04702B010BD00BF64
:1050900000A00C4010B54FF0805382B0D3F8A4317B
:1050A00080B200905C68044811234FF40032042160
:1050B000A04702B010BD00BF00A00C4010B54FF0DB
:1050C000805382B0D3F8A43180B200905C68044869
:1050D0000A234FF440622021A04702B010BD00BF58
:1050E00000A00C4070B54FF0805582B0D5F8A411E7
:1050F0000B4C022300934E68204607234FF4C072E6
:105100000021B047D5F8A421D56807234FF4C07219
:1051100000212046AC4602B0BDE87040604700BFA9
:1051200000A00C4070B530F0020482B001D002B093
:1051300070BD4FF0805580B2D5F8A41100904E6834
:105140000848214604237022B047D5F8A421054819
:10515000D56870231A462146AC4602B0BDE87040BF
:10516000604700BF00A00C40024B4FF00042C3F864
:105170000021704700A00C40034AD2F8243243F0CB
:105180000303C2F8243270470020084001F05CB9E4
:105190004FF08053D3F8E0311B68184770B54FF0DB
:1051A000805582B0D5F8A4110B4C032300934E68B0
:1051B00020461C234FF040520021B047D5F8A431BF
:1051C000012200925D684FF40072092300212046FD
:1051D000A84702B070BD00BF00A00C404FF0805344
:1051E00010B5D3F8A4210548D468002301223C213E
:1051F000A047003818BF012010BD00BF00A00C4020
:1052000008B501F0DDF808BD064BD3F8AC3F002B24
:10521000054BB4BF4FF440524FF48052C3F8A8205E
:10522000704700BF0040005000A00C40064BD3F870
:10523000AC3F002B054BB4BF4FF441524FF48252A8
:10524000C3F82821704700BF0040005000A00C4068
:1052500001F0A4B8024B4022C3F8A82001F09EB888
:1052600000A00C404FF0FF32002101F08BBA00BFCC
:1052700001F06ABA4FF08053D3F8B831DB6A1847AF
:105280004FF08053D3F8E8311B681847094BD3F827
:10529000B43FC3F38153022B00D07047064B07493C
:1052A00003448B42F9D84FF08053D3F8F0315B6C54
:1052B000184700BF004000505C8F82FFB71E0500FA
:1052C0004FF08053D3F8E8315B68184710B40023DF
:1052D000541EC0E90234C0E90012C0E904335DF88D
:1052E000044B704738B505460C4600F0F3FDAB683B
:1052F0006A689C4228BF1C461B1BAB602B69234479
:10530000B3FBF2F102FB11332B6100F0EBFD204601
:1053100038BD00BF8068704738B504460D4600F0C0
:10532000D9FD2169636822685B1A0A44A1682A6072
:105330008B4228BF0B461C4600F0D4FD204638BDEA
:1053400038B504460D4600F0C5FDD4E9012393426B
:1053500014D0E36821680133B3FBF2FC02FB1C3379
:10536000CD54E360A368626901339A4238BF1A469C
:10537000A360626100F0B6FDA06838BD00F0B2FD28
:105380004FF0FF3038BD00BFF8B504460F4600F0BF
:10539000A1FDD4E90162B51ABD426169E36828BF85
:1053A0003D462A4491422B4438BF1146A260B3FBCC
:1053B000F6F206FB12336161E36000F093FD2846CC
:1053C000F8BD00BF70B504460E4600F083FDE368EB
:1053D0006268A56821680133541BB3FBF2F502FB38
:1053E0001533D21A94420B4428BF1446336000F0A0
:1053F00079FD204670BD00BF43681B680122DA6456
:10540000704700BFF0B5174DD5E9006785B0387912
:10541000FEF7ACF900F05EFD337804462BB1204670
:1054200000F060FD0F4805B0F0BD01A800F0B0FD30
:10543000BA79029279790C4A019501AB301D00F0DE
:1054400063FD3A6801234FF0FF313370D1623A684F
:10545000064991603A682046536000F043FD0148D8
:1054600005B0F0BD287E0000F953000000180020B0
:1054700000F02EBD704700BFF8B5154E33780446D6
:105480000F4615466BB154B185B12B7823706B680C
:1054900063602B789BB94FF6FF73E760A3602046EB
:1054A000F8BD00F08DFB01233370ECE7094B93E866
:1054B000030084E8030025462B78002BEBD0012362
:1054C000A36017B1E3602046F8BDE7602046F8BD51
:1054D00031250020201B0020F8B50C4E0C4A3378F3
:1054E000576804460D4643B12CB10123C4E901734A
:1054F00023703DB1E3602046F8BD00F061FB01235D
:105500003370F1E7E5602046F8BD00BF312500208B
:10551000201B0020704700BF2DE9F04192B00F46DC
:1055200000230A460546394901A800F069FB7B1EA5
:1055300003332FD900F0CEFC354ED5F80C80012373
:1055400004463370B8F1000F11D101372ED1314F1D
:105550006B6803B19847204600F0C4FC3B78002BF1
:105560003BD100F0B7FCEB680446002BF0D0EB68B1
:1055700000203070002B46D0EB68013B0646EB6004
:10558000204600F0AFFC01A800F04CFB304612B002
:10559000BDE8F08101A81E4E00F052FB00F09AFC1D
:1055A00001233370EB680446002BE0D1194F4FF014
:1055B000000801A800F0DAFB0028D8D06B6803B11E
:1055C0009847204600F08EFC3B788BB900F082FCB7
:1055D000EB680446002BECD0C9E7FDF741FF87F8E4
:1055E000008000F077FCEB680446002BB0D0BEE7EB
:1055F000FDF736FF87F8008000F06CFCEB6804468E
:10560000002BD6D0B3E74FF0FF36B9E77554000052
:10561000332500203225002038B5044600F05AFC1E
:10562000E268A3689A42054602D2E3680133E36068
:1056300000F0CCFC28B1074B1B7813B1064C237843
:1056400023B12846BDE8384000F04CBCFDF7FEFE13
:105650002070F6E7332500203225002000234FF08C
:10566000FF32036043608260C36070472DE9F047FA
:1056700084B000285BD0DFF804910F46164604463C
:1056800000F028FC99F80030054603F0FF084BBBFA
:105690002E4800F0DBFB2E4800F0D8FB2D4800F030
:1056A000D5FB2D4800F0D2FB2C4B2D4AC3F80080CF
:1056B0002C4BC3F800802C4B4FF0010A01A8C2F814
:1056C00000A083F8008000F063FC284A2848116895
:1056D000284A4FF0E00C01ABCDF808C000F014FCF4
:1056E00089F800A0284600F0FDFB36B3B5686B1CB6
:1056F00028D0032D1BD84FEAC508204600F0A6FB92
:10570000124B984496E80F0004F10C0C8CE80F0043
:10571000A646A36965614FF000097046E761C4F8C9
:105720002490C4F80880236204B0BDE8F0874FF0ED
:10573000000E704604B0BDE8F0870F4E4FF0180819
:105740000325DAE74FF018080325D6E734250020B3
:105750003C250020442500204C2500207C250020ED
:105760007825002074250020712500202C1B0020A6
:105770005425002071580000108200007025002080
:1057800010B500F0A7FB044B1C6800221A6000F063
:10579000A9FB204610BD00BF782500202DE9F84F59
:1057A0002D4E3368002B3CD02C4FDFF8BC90DFF837
:1057B000BC8005464FF0010A3A68012A31D13368AE
:1057C00018073CD459073ED413F0020140D113F01E
:1057D000010B3FD14C46204600F042FB03462046D9
:1057E0001C4600F037FB28B133680AFA0BF223EAB3
:1057F00002033360A269236AC8F800300221C4E9B9
:105800000821284600F06EFBE369D4E903019847BC
:1058100000F060FB636A022B0546336806D0002B5C
:10582000CAD10F4B00221A70BDE8F88F00226262C5
:10583000002BC1D10A4B00221A70BDE8F88F094C29
:105840004FF0030BC7E74FF0020B09EBCB04C2E7A5
:105850009346FAE78B46F8E77C2500207825002060
:10586000712500204C2500203425002074250020BF
:1058700010B500F02FFB0446FFF790FF2046BDE86F
:10588000104000F02FBB00BF014B1868704700BFED
:105890007425002070B504460D4600F01BFB236AFA
:1058A0002B43236200F01EFB00F014FB636A012B04
:1058B00006460ED0124B6069012503EBC0006562FD
:1058C000214600F0DFFA0F4B626995401A681543D4
:1058D0001D600D4C23781BB90C4B1D68012D04D0A5
:1058E0003046BDE8704000F0FDBA094B186800F082
:1058F00067FB25703046BDE8704000F0F3BA00BF8A
:10590000342500207C2500207125002078250020EA
:105910002C1B002070B5044600F0DCFA636A012BF2
:1059200005460ED0124B6069012603EBC00066628B
:10593000214600F0A7FA0F4B626996401A68164399
:105940001E600D4C23781BB90C4B1E68012E04D031
:105950002846BDE8704000F0C5BA094B186800F051
:105960002FFB26702846BDE8704000F0BBBA00BF90
:10597000342500207C25002071250020782500207A
:105980002C1B002070B5044600F0A4FA0B4A0C4B07
:1059900014601B6805460BB1012C04D02846BDE8F5
:1059A000704000F09FBA074E3378002BF6D1064BBB
:1059B000186800F005FB3470F0E700BF7825002080
:1059C0007C250020712500202C1B0020014B986CA9
:1059D000FFF7A0BF9025002030B51B4C89B02046B2
:1059E00000F034FA0125002304A8A360C4F89C3019
:1059F000A4F8A03084F8A230C4F89850C4F89450A9
:105A0000FFF72CFE04AA11494FF0FF3304F10C00FC
:105A10000693FFF72BFE034601A8A36400F076FB74
:105A20000B4B0C491B68039301AA04F1500000F0D2
:105A300075FBC4F8900000F0EDFB074BC4F89C0028
:105A40001D7009B030BD00BF902500205D5A0000D8
:105A5000281B0020CD5900008C2500202DE9F04F97
:105A600083B000F037FA514E04460121D6F8900079
:105A700000F00EFCB368D6F898700122A6F8A020BA
:105A8000FA1AB368C31A9A4200F287808146204608
:105A9000A9EB07094FF0000A00F024FA304600F0A5
:105AA000EDF9B042CDF8049083465744A9EB0A09BA
:105AB0004FF0FF3809D11CE02B7D23B1EB68DB1BD5
:105AC000984528BF9846B44213D0584600F0D8F9FC
:105AD0009BF814305D4604468346002BF3D0EB68F8
