:100000004852002001250000F9240000FB240000D4
:10001000FD240000FD240000FD240000000000007D
:10002000000000000000000000000000FD240000AF
:10003000FD24000000000000FD240000FD2400005D
:10004000FD240000FD240000FD240000FD2400002C
:10005000FD240000FD240000FD240000FD2400001C
:10006000FD240000FD240000FD240000FD2400000C
:10007000FD240000FD240000FD240000FD240000FC
:10008000FD240000FD240000FD240000FD240000EC
:10009000FD240000FD240000FD240000FD240000DC
:1000A000FD240000FD240000FD240000FD240000CC
:1000B000FD240000FD240000FD240000FD240000BC
:1000C000FD240000FD240000FD240000FD240000AC
:0800D000FD240000FD240000E6
:1001000053B94AB9002908BF00281CBF4FF0FF317E
:100110004FF0FF3000F074B9ADF1080C6DE904CE7A
:1001200000F006F8DDF804E0DDE9022304B07047D2
:100130002DE9F047089D04468E46002B4DD18A429A
:10014000944669D9B2FA82F252B101FA02F3C2F1CD
:10015000200120FA01F10CFA02FC41EA030E94405E
:100160004FEA1C48210CBEFBF8F61FFA8CF708FB7F
:1001700016E341EA034306FB07F199420AD91CEB57
:10018000030306F1FF3080F01F81994240F21C8189
:10019000023E63445B1AA4B2B3FBF8F008FB1033D1
:1001A00044EA034400FB07F7A7420AD91CEB040406
:1001B00000F1FF3380F00A81A74240F207816444D6
:1001C000023840EA0640E41B00261DB1D44000235B
:1001D000C5E900433146BDE8F0878B4209D9002DBF
:1001E00000F0EF800026C5E9000130463146BDE849
:1001F000F087B3FA83F6002E4AD18B4202D38242B3
:1002000000F2F980841A61EB030301209E46002D61
:10021000E0D0C5E9004EDDE702B9FFDEB2FA82F2B6
:10022000002A40F09280A1EB0C014FEA1C471FFA14
:100230008CFE0126200CB1FBF7F307FB131140EAFB
:1002400001410EFB03F0884208D91CEB010103F1C8
:10025000FF3802D2884200F2CB804346091AA4B28A
:10026000B1FBF7F007FB101144EA01440EFB00FE5E
:10027000A64508D91CEB040400F1FF3102D2A645C3
:1002800000F2BB800846A4EB0E0440EA03409CE762
:10029000C6F12007B34022FA07FC4CEA030C20FA0F
:1002A00007F401FA06F31C43F9404FEA1C4900FA2F
:1002B00006F3B1FBF9F8200C1FFA8CFE09FB1811AC
:1002C00040EA014108FB0EF0884202FA06F20BD91F
:1002D0001CEB010108F1FF3A80F08880884240F26F
:1002E0008580A8F102086144091AA4B2B1FBF9F0B3
:1002F00009FB101144EA014100FB0EFE8E4508D9AE
:100300001CEB010100F1FF346CD28E456AD9023832
:10031000614440EA0840A0FB0294A1EB0E01A14217
:10032000C846A64656D353D05DB1B3EB080261EB85
:100330000E0101FA07F722FA06F3F1401F43C5E95F
:10034000007100263146BDE8F087C2F12003D84095
:100350000CFA02FC21FA03F3914001434FEA1C47D7
:100360001FFA8CFEB3FBF7F007FB10360B0C43EAC9
:10037000064300FB0EF69E4204FA02F408D91CEB79
:10038000030300F1FF382FD29E422DD90238634477
:100390009B1B89B2B3FBF7F607FB163341EA034117
:1003A00006FB0EF38B4208D91CEB010106F1FF3866
:1003B00016D28B4214D9023E6144C91A46EA00465D
:1003C00038E72E46284605E70646E3E61846F8E6EF
:1003D0004B45A9D2B9EB020864EB0C0E0138A3E738
:1003E0004646EAE7204694E74046D1E7D0467BE719
:1003F000023B614432E7304609E76444023842E791
:10040000704700BF0A22002100F0F8BC0A23002236
:1004100000F0D4BC844641EA000313F003036DD11D
:10042000403A41D351F8043B40F8043B51F8043BB7
:1004300040F8043B51F8043B40F8043B51F8043BBE
:1004400040F8043B51F8043B40F8043B51F8043BAE
:1004500040F8043B51F8043B40F8043B51F8043B9E
:1004600040F8043B51F8043B40F8043B51F8043B8E
:1004700040F8043B51F8043B40F8043B51F8043B7E
:1004800040F8043B51F8043B40F8043B51F8043B6E
:1004900040F8043B51F8043B40F8043B51F8043B5E
:1004A00040F8043B403ABDD2303211D351F8043BFE
:1004B00040F8043B51F8043B40F8043B51F8043B3E
:1004C00040F8043B51F8043B40F8043B103AEDD2AD
:1004D0000C3205D351F8043B40F8043B043AF9D2FE
:1004E000043208D0D2071CBF11F8013B00F8013BD1
:1004F00001D30B8803806046704700BF082A13D3DE
:100500008B078DD010F003038AD0C3F10403D21AF5
:10051000DB071CBF11F8013B00F8013B80D331F829
:10052000023B20F8023B7BE7043AD9D3013A11F8A9
:10053000013B00F8013BF9D20B7803704B78437014
:100540008B78837060467047830730B548D0541E5F
:10055000002A3FD0CAB2034601E0013C3AD303F877
:10056000012B9D07F9D1032C2DD9CDB245EA0525E4
:100570000F2C45EA054536D9A4F1100222F00F0CE4
:1005800003F1200EE6444FEA121C03F1100242E987
:10059000045542E9025510327245F8D10CF10102BE
:1005A00014F00C0F03EB021204F00F0C13D0ACF19B
:1005B000040323F003030433134442F8045B93421F
:1005C000FBD10CF003042CB1CAB21C4403F8012B7C
:1005D0009C42FBD130BD64461346002CF4D1F9E7B0
:1005E00003461446BFE71A46A446E0E7002958D060
:1005F00030B551F8043C83B0002BA1F10404B8BF1E
:10060000E418019000F084FC284A0198136833B183
:10061000A3420DD9216804EB010C63452FD0636020
:10062000146003B0BDE8304000F074BCA34210D8A1
:100630001A465B68002BF9D1116802EB010C644586
:1006400019D02FD36360546003B0BDE8304000F090
:1006500061BC116802EB010CA44516D022D82168B8
:1006600004EB010C6345EDD11D685B682944C4E9C6
:1006700000135460D5E7236819441160D1E71D6861
:100680005B682944C4E90013CAE72468214454186C
:10069000A3421160C5D1D3E900432144C2E900134C
:1006A000BFE770470C230360BBE700BF880300204F
:1006B000F8B5CD1C25F0030508350C2D38BF0C25E9
:1006C000002D064623DBA94221D8254F00F020FC4F
:1006D0003A6822B3144603E063682246FBB11C4625
:1006E00023685B1BF8D40B2B15D8636894420CBFAE
:1006F0003B605360304600F00DFC04F10B00231DFD
:1007000020F00700C21A01D01B1AA350F8BD0C2319
:1007100033600020F8BD23601C442560EAE7796857
:10072000C9B12946304600F01DF8431C0CD0C41C4A
:1007300024F00304A04205D0211A304600F012F83C
:10074000013001D02560D5E70C233046336000F03E
:10075000E1FB0020F8BD304600F004F87860E0E7E7
:100760008803002038B5074D0022044608462A6059
:1007700001F0BCF8431C00D038BD2B68002BFBD027
:10078000236038BD9003002011F0FF01034644D0E0
:10079000820732D110B5046841EA012E4EEA0E4EAE
:1007A0008EEA0402A2F1013323EA0203A4F101322A
:1007B00022EA0402134313F0803F0FD150F8044F94
:1007C00084EA0E0CA4F10133ACF1013223EA0403F4
:1007D00022EA0C02134313F0803FEFD0037823B9D1
:1007E00036E010F8013F002B32D09942F9D110BD0C
:1007F0008A4211D09A071846CCD0184613F8012B1C
:10080000002AF5D1104670479907184607D01846B8
:1008100001330278002AF7D170478207F7D10268C6
:10082000A2F1013323EA020313F0803F08D150F80C
:10083000042FA2F1013323EA020313F0803FF6D024
:100840000378002BE8D010F8013F002BFBD1704754
:10085000184610BD0000000000000000000000006D
:10086000A2EB0300704700BF02780B78012A28BF73
:100870009A42F5D16DE9044540EA0104CDE90267E9
:100880006FF0000C4FEA447212B380EA010414F0D6
:10089000070F6AD100F0070420F0070004F00305F9
:1008A00021F007014FEAC505F0E8042314F0040F16
:1008B000F1E804670CFA05F462EA040266EA040649
:1008C0000AD063EA0403624667EA0407664603E067
:1008D000F0E80423F1E8046782FA4CF582EA0604A2
:1008E000A4FA8CF46CBB83FA4CF583EA0705A5FAED
:1008F0008CF595B950E9022351E9026782FA4CF56B
:1009000082EA0604A4FA8CF483FA4CF583EA07051C
:10091000A5FA8CF52543DBD09CB92DBAB5FA85F440
:1009200024F0070427FA04F1DDE9026723FA04F34F
:1009300003F0FF0001F0FF01FDE80445A0EB01001A
:10094000704724BAB4FA84F424F0070426FA04F1B8
:10095000DDE9026722FA04F202F0FF0001F0FF0174
:10096000FDE80445A0EB0100704714F0030F3CD1F3
:1009700010F0030428D150F8082B51F8083B82FAF4
:100980004CF582EA0305A5FA8CF55DB950F8042C04
:1009900051F8043C82FA4CF582EA0305A5FA8CF57D
:1009A000002DE8D02DBAB5FA85F424F0070423FA17
:1009B00004F122FA04F202F0FF0001F0FF01FDE869
:1009C0000445A0EB010070474FEAC40420F0030087
:1009D00050F8082B21F0030151F8083B0CFA04F4FD
:1009E00062EA040263EA0403C9E710F003041AD0C0
:1009F000A1EB040120F00300E40750F8042B06D01B
:100A00000FD28B785FFAA2F4E41A06D12BB1CB781F
:100A10005FFAB2F4E41A00D11BB920465DF8104B1E
:100A2000704701F1040150F8042BCC0721F00301B9
:100A300051F8043B48D824D222F07F4482FA4CF586
:100A400094EA1325A5FA8CF50AD165B951F8043B4F
:100A500084EA0204B4EB036F0ED150F8042BEBE7E9
:100A60004FEA132355E035F07F454DD10878FDE876
:100A70000445C0F1000070474FEA126203F0FF0323
:100A800047E002EA1C4482FA4CF594EA1345A5FAC1
:100A90008CF50AD165B951F8043B84EA0204B4EB41
:100AA000034F0CD150F8042BEBE74FEA134330E02F
:100AB00015EA1C4528D10B884FEA124229E04FEA7B
:100AC000124203EA1C4324E002F0FF0482FA4CF5D0
:100AD00094EA1365A5FA8CF50AD165B951F8043B7F
:100AE00084EA0204B4EB032F09D150F8042BEBE79E
:100AF0004FEA13630DE015F0FF0F05D10B684FEAC5
:100B0000122223F07F4304E04FF00000FDE804458B
:100B1000704712BA1BBA82FA4CF482EA0304A4FAB0
:100B20008CF5B5FA85F402FA04F203FA04F34FEAFD
:100B30001260FDE80445A0EB136070470000000060
:100B400090F800F06DE9024520F007016FF0000C0D
:100B500010F0070491F820F040F049804FF00004B5
:100B60006FF00700D1E9002391F840F000F1080090
:100B700082FA4CF2A4FA8CF283FA4CF3A2FA8CF3C8
:100B80004BBBD1E9022382FA4CF200F10800A4FA2F
:100B90008CF283FA4CF3A2FA8CF3E3B9D1E9042383
:100BA00082FA4CF200F10800A4FA8CF283FA4CF3BA
:100BB000A2FA8CF37BB9D1E9062301F1200182FA74
:100BC0004CF200F10800A4FA8CF283FA4CF3A2FA7A
:100BD0008CF3002BC6D0002A04BF04301A4612BA88
:100BE000B2FA82F2FDE8024500EBD2007047D1E98B
:100BF000002304F00305C4F100004FEAC50514F01A
:100C0000040F91F840F00CFA05F562EA05021CBFEA
:100C100063EA050362464FF00004A9E7A2B330B5CA
:100C200040EA0104A40784460B462AD09CF8000041
:100C30000C7884422FD1012A0DD0E64660B11EF80F
:100C4000010F11F8014F6FEA0E03A042134422D1A5
:100C50001CEB0303F2D1002030BD0468194653F8A1
:100C6000045BA4F1013EAC4284462EEA040E00F17E
:100C700004000BD1043A84461946ECD01EF0803FA4
:100C8000E9D1032AE9D8D1E7104670479CF8000063
:100C90000C78A042D1D0001B30BD00BF2DE9F04F31
:100CA000814645488E4675461EF801CB10F80C402B
:100CB00014F00804F7D1BCF12D0FE34654D0BCF179
:100CC0002B0F08BF9EF800B06FF0004808BF05F179
:100CD000020E1BB1102B4FD01F4604E0BBF1300FAA
:100CE00055D00A231F460025B8FBF7F6284607FB18
:100CF000168A07E0864215D329D007FB00C00125DC
:100D00001EF801BBABF1300CBCF1090F06D9ABF1F9
:100D1000410CBCF1190F08D8ABF1370C63450DDD60
:100D2000002DE7DA4FF0FF35EAE7ABF1610CBCF1DB
:100D3000190F03D8ABF1570C6345F1DC002D0BDB29
:100D400004B140420AB195BB1160BDE8F08FE245A5
:100D5000D3DA4FF0FF35D3E72223C9F800301AB3B6
:100D60000EF1FF314046EFE79EF800B04FF000482B
:100D700005F1020E0124ACE7BBF1300FACD19EF8B7
:100D8000000000F0DF00582807D01F46ABE79EF8B0
:100D9000003003F0DF03582B0BD110279EF801B071
:100DA0003B460EF1020E9EE74046BDE8F08F8046BE
:100DB000D6E708231F4696E7B17D0000012B02D03D
:100DC000242B00D86AE710B500F09CF816230360C6
:100DD000002010BD012A08D0242A06D884460648DF
:100DE000134600680A46614658E710B500F08AF8D5
:100DF00016230360002010BDD8000020012A08D06F
:100E0000242A06D884460648134600680A466146E6
:100E100044E710B500F076F816230360002010BDFB
:100E2000D800002010B51A4C002924689AB02ADB9B
:100E3000009004904FF40270ADF80C0013D001390B
:100E40004FF6FF7002910591ADF80E0069462046FD
:100E500000F040F9421C01DA8B232360009B002242
:100E60001A701AB010BD4FF6FF7002910591ADF8DF
:100E70000E006946204600F02DF9431C01DA8B2351
:100E800023601AB010BD8B2323604FF0FF30F8E7CA
:100E9000D800002030B5141E9BB005462CDB4FF463
:100EA000027200910491ADF80C2014D04FF6FF713E
:100EB0001A46013CADF80E101E9B0294694605943B
:100EC00000F008F9421C01DA8B232B60009B002202
:100ED0001A701BB030BD4FF6FF711A46ADF80E10F8
:100EE0001E9B02946946059400F0F4F8431C01DA55
:100EF0008B232B601BB030BD8B2303604FF0FF3082
:100F0000F8E700BF014B1868704700BFD800002009
:100F1000704700BF704700BF2DE9F0478F689F42C0
:100F20000C461D46164638D88246888910F4906FC4
:100F30000ED108683D462A46314600F029FCA268D9
:100F40002368D21B2B44A26023600020BDE8F087F9
:100F50004B69096903EB4308236808EBD878A3EBD6
:100F600001096B1C4FEA68084B444345424684BF65
:100F700098464246430513D511465046FFF798FB65
:100F8000074608B321694A46FFF744FAA38923F4C8
:100F9000906343F08003A38107E008681F46CAE717
:100FA000504600F071FC074650B107EB0900A8EB72
:100FB00009032761C4F81480A36020602F46BAE7B4
:100FC00021695046FFF712FB0C23CAF80030A389B1
:100FD00043F040034FF0FF30A381B7E72DE9F04F16
:100FE000936883B09146002B6ED017688D68804659
:100FF0000C460868083744E0A38913F4906F2ED09C
:10100000D4E90415A0EB010A05EB450505EBD57500
:101010000AEB06006D100130A8422A4684BF05463F
:101020002A465B0537D511464046FFF741FB0028AD
:101030003BD0524621690190FFF7ECF9A289019B50
:1010400022F4906242F08002A281A5EB0A0203EB37
:101050000A006561A260236120603546B2465946A8
:10106000524600F095FBA068D9F808102368451B8C
:101070008E1B03EB0A00A5602060C9F808601EB350
:10108000083757E902B6002EFAD0B542AA46B3D9BE
:101090003546B246E3E7404600F0F6FB034600283B
:1010A000D3D121694046FFF7A1FA0C23C8F80030DC
:1010B000A389002243F040034FF0FF30A381C9E928
:1010C000012203B0BDE8F08F0020C9F8040003B08E
:1010D000BDE8F08F2DE9F04F92468A8915069DB044
:1010E000884681461C4603D50A69002A00F0EF8035
:1010F000002209929AF800307E4D039420228DF848
:10110000292030228DF82A200126002B72D0544647
:1011100003E014F8013F002B76D0252BF9D1B4EB76
:101120000A0B74D12278002A64D000234FF0FF32DA
:10113000CDE90523049307938DF853301A930134B6
:1011400004E0049A06FA03F313430493A24605222B
:1011500014F8011B284600F0CBFA431B0028F0D1FD
:10116000049BD80644BF20228DF8532019079AF813
:10117000001044BF2B228DF853202A2954D1039A02
:1011800011680432002903927CDB07919AF8011060
:101190000AF1010A2E2959D0574C0322204600F0AB
:1011A000A7FA40B1049B001B402404FA00F003435B
:1011B00004930AF1010A1AF8011B50488DF828100F
:1011C000062200F095FA002862D04D4B002B52D039
:1011D00003AA00924B4B424604A94846AFF3008055
:1011E00007467A1C06D0099B3B4409939AF80030C5
:1011F000002B8CD1B8F80C305B0654BF09984FF027
:10120000FF301DB0BDE8F08FB4EB0A0BF2D05B46A7
:10121000524641464846FFF77FFE0130EAD0099B1F
:1012200022785B4409937EE7A1F13002092AB1D804
:10123000079B1AF8011F03EB830302EB4303A1F1A1
:101240003002092AF5D92E290793A5D19AF8011061
:101250002A2927D1039B9AF802101A6805920433B1
:10126000002A0AF102000393B8BF4FF0FF33824611
:10127000B8BF059390E7039B073323F007030833B8
:101280000393B0E7494243F00203079104937DE7DB
:1012900003AA00921B4B424604A9484600F0CAF834
:1012A00007469EE7A1F130020023092A05930AF1BF
:1012B000010A3FF671AF1AF8011F03EB830302EB3B
:1012C0004303A1F13002092AF5D9059364E74021CF
:1012D000FFF7EEF9C8F80000C8F8100018B1402276
:1012E000C8F8142004E70C23C9F800304FF0FF3091
:1012F00087E700BF20870000288700002C870000B8
:1013000000000000190F00002DE9F84F92461F461B
:101310000A698B68DDF828909A42B8BF1A46CAF865
:10132000002091F843300C46064613B10132CAF84A
:101330000020226891065DD5DAF800300233CAF841
:101340000030226812F0060F11461ED1E168CB1A58
:10135000002BD8BF114618DD04F1190B4FF000081F
:1013600005E0E568DAF80030ED1A45450CDD0123AB
:101370005A4639463046C847013008F10108F0D1D5
:101380004FF0FF30BDE8F88F216894F84330003B00
:1013900018BF01238A060AD5E1185A1C302081F8AB
:1013A0004300224494F8451082F84310023304F1BC
:1013B000430239463046C8470130E1D0236803F084
:1013C0000603042B1DD0A3682269934225DD4FF04C
:1013D00000089B1A98441A34002501E045451CDAA0
:1013E0000123224639463046C847013005F1010540
:1013F000F4D1C5E712F0060F12D0003B18BF01234D
:10140000D5E7DAF80030E1682269C91AA368934287
:1014100021EAE178DDDC0029DDDC0020BDE8F88F81
:10142000E168DAF80030CB1A002BD8BF114693DC04
:10143000ABE700BF2DE9F0470C4684B09046227E12
:101440000C990746994604F14300002A33D0A2F1D3
:101450005803DDB2202D67D8202B65D8DFE813F0C4
:10146000DE006400640064006400640064006400E2
:10147000640064006400A3006E0064006400640003
:1014800064006E00640064006400640021007F005A
:10149000C00064006400AE0064007F00640064006B
:1014A000E50023681A0640F104810B6862691D1D7E
:1014B0000D601B681A60002382462361CDF80090FE
:1014C000434603AA21463846FFF71EFF013020D0CD
:1014D0002369524641463846C847013019D023682F
:1014E000E068039E9B0719D5831B002B16DD04F1D2
:1014F000190A002504E0E068039E831BAB420DDD62
:101500000123524641463846C847013005F10105DE
:10151000F1D14FF0FF3004B0BDE8F087B042B8BF62
:10152000304604B0BDE8F087012384F842202361EF
:1015300004F1420A002384F84330BFE723681A0607
:1015400002D45E0600F1C1800D682A6804350D6082
:101550001546002A6BDBDFF884C10A2610E02368F9
:101560001D0640F19C800B681D1D0D601D68DFF895
:101570006CC16F2A0CBF08260A26002384F843306A
:101580006268A260002A7FDB236823F004032360E3
:10159000002D5BD1002A79D18246082E65D0A0EBC0
:1015A0000A0020618AE70B680122186804330B6087
:1015B00004F1420A84F842002261BBE70B686268CA
:1015C000181D0860D3F800A00021504600F090F8E4
:1015D000002800F08180A0EB0A0060602061A9E78C
:1015E000236843F0200323607822DFF8F4C084F8F6
:1015F00045200A68151D0D601D0643D4590641D5C6
:101600001588DE0744BF43F020032360002D44D13A
:10161000236823F0200323601026AEE7582384F8C4
:101620004530DFF8B8C02368E3E72368DCE7626889
:10163000A2602D21002AC5F1000584F8431002DBC9
:1016400023F004032360DFF894C00A268246B5FB2A
:10165000F6F306FB13512A461CF801100AF8011D87
:10166000B2421D46F3D2082E99D12368D90796D5E8
:10167000626823699A4292DC30230AF8013C0AF13D
:10168000FF3A8CE71568BCE7002DDFD19CF80030ED
:1016900084F8423004F1420A7FE710266DE713F028
:1016A000400F0B6803F104050D600CBF1D681D8819
:1016B0005DE713F0400F0B68626903F104050D60EC
:1016C0001B6814BF1A801A60F5E60A68B2F9005068
:1016D00004320A602A463CE760687FE734870000EE
:1016E000488700000000000000000000000000002B
:1016F00001F0FF01102A2BDB10F0070F08D010F8C3
:10170000013B013A8B422DD010F0070F42B3F6D1C6
:10171000F0B441EA012141EA014122F007047FF0DF
:1017200000070023F0E80256083C85EA010586EA36
:10173000010685FA47F5A3FA87F586FA47F6A5FA72
:1017400087F68EB9EED1F0BC01F0FF0102F007027E
:1017500032B110F8013B013A83EA010313B1F8D129
:101760000020704701387047002D06BF354603380A
:10177000073815F0010F07D1013015F4807F02BF43
:10178000013015F4C03F0130F0BC0138704700BF94
:1017900088420DD98B1883420AD900EB020CBAB1EA
:1017A000624613F801CD02F801CD9942F9D1704794
:1017B0000F2A0ED8034602F1FF3C4AB10CF1010C8E
:1017C000013B8C4411F8012B03F8012F6145F9D13D
:1017D000704740EA01039B0750D1A2F1100370B596
:1017E00001F1200C23F00F0501F1100E00F110049F
:1017F000AC441B095EF8105C44F8105C5EF80C5CAD
:1018000044F80C5C5EF8085C44F8085C5EF8045C24
:1018100044F8045C0EF1100EE64504F11004E9D121
:10182000013312F00C0F01EB031102F00F0400EB77
:10183000031327D0043C24F003064FEA940C1E4403
:101840001C1F8E465EF8045B44F8045FB442F9D175
:101850000CF1010402F0030203EB840301EB8401A9
:1018600002F1FF3C4AB10CF1010C013B8C4411F830
:10187000012B03F8012F6145F9D170BD02F1FF3C46
:1018800003469BE72246EBE7F8B51446F9B1CAB127
:1018900006460D4600F020F8A04202D32F463846F7
:1018A000F8BD21463046FEF703FF07460028F6D074
:1018B00022462946FEF7AEFD30462946FEF796FE43
:1018C0003846F8BD2746FEF791FE3846F8BDBDE81C
:1018D000F8401146FEF7ECBE51F8040C0028A0F1C8
:1018E0000400BCBF0B58C018704700BF044A05492C
:1018F0001368002B08BF0B46184410601846704749
:1019000094030020440E002070B50246014441F2C9
:1019100021054FF6FF7012F8013B082480EA0320EE
:1019200006B2430098B2002E04F1FF33B8BF6840FE
:1019300013F0FF04F4D18A42EDD170BD10B4019BC5
:101940000BBB02B3134B144C197822680D29CBB290
:1019500001D00A2B09D1B2B1104B00219954104B80
:101960005DF8044B01221A7070471E2A0BD80D49EE
:10197000C95C01F00301022902F10101216007495C
:1019800008BF203B8B5403495DF8044B0023012220
:1019900003F0EEBE08050020B803002098030020E5
:1019A000BC030020B17D000007B50190FFF7C8F827
:1019B0000246044801990068002303B05DF804EB77
:1019C00004F04EB84C0500200FB400B5A3B024AB12
:1019D000802153F8042B019302A8FFF723FA02A8F1
:1019E000FFF7E2FF23B05DF804EB04B0704770B579
:1019F00000261378F5B2AB4201D8012070BD00EB90
:101A0000450310F815405B78402C8CBF373C303CC8
:101A1000402B8CBF373B303BE4B2DBB243EA0413CC
:101A20004B550136E5E700004B1E292B37B50D4617
:101A30002BD80378417890F90020154C1B0443EA19
:101A400001238178002AB4BFAA2255220B4343EA1E
:101A5000026323610F4B01462A461846FEF7DAFC63
:101A6000002160610020CDE900010B48E5730023EF
:101A70001A4600686380214602F0C4FB6088A0F526
:101A800050535842584103B030BD0020FBE700BF1F
:101A9000A801002020050020C003002073B51C46CB
:101AA000054601911646FFF74BF810F0FF030DD0E5
:101AB000C2070BD45B08B342237007D801992246B2
:101AC000284602B0BDE87040FFF791BF002002B089
:101AD00070BD37B5144605460191FFF731F8C3B222
:101AE0009A1F042A0BD8C20709D401995B08224621
:101AF0002846237003B0BDE83040FFF778BF0020D0
:101B000003B030BD2DE9F74F0026244D244C254F5E
:101B1000DFF89CB0AE8002239046824640222248E5
:101B20006B7189463146EA80CBE90056C7E9006609
:101B3000A8602D60BE60FEF707FDE37F1B4804220E
:101B400062F303034FF47A6202FB08F2E377226246
:101B500000230022CDE900232146334600683246A7
:101B6000C4E90AB702F04EFB6388B3F5505F0AD0B0
:101B700043F20342934206D00023184689F800300E
:101B800003B0BDE8F08F97F907308AF800302B7961
:101B9000032BF1D1237E0120F0E700BF0C050020CC
:101BA0007801002050050020C8040020C003002058
:101BB00018050020022A2DE9F74F8346884616466D
:101BC0001C4602D0511E4A424A4108F1020A93B211
:101BD00052445A4503D9002003B0BDE8F08F394D77
:101BE0000193322200212046FEF7AEFC424684F8E3
:101BF000018084F82A602946A01CFEF70BFC05EB47
:101C00000802577815F808204FEA9208FF0902F0F9
:101C10000302B8F1200F84F8078022726772DAD8C5
:101C2000019B08EB0A094B449B45D4D3424605EB84
:101C30000A0104F10A00FEF7EDFB012E22D105EBAB
:101C40000803002213F80A00A085FF2315F8011BE2
:101C50004B40082113F0800F01F1FF314FEA43039D
:101C600018BF83F0070311F0FF01DBB2F2D101329C
:101C700092B29145EAD89BB2C21AE38553425341CE
:101C8000237012E0022E19D109F1010215F8093072
:101C9000AE5C46EA0326A68549462846FFF734FE91
:101CA000331A5E425E41E0852670B8F1000F07D11D
:101CB00087F00107207884F830708DE70123DFE793
:101CC0000027F7E7C80400207D2807B50DD808498C
:101CD00000F51660002200230884CDE900230548A2
:101CE000002300681A4602F08DFA03B05DF804FB89
:101CF00048010020C00300202DE9F047AB49AC4863
:101D00009AB00322FEF78AFF054610BBA949AA48EC
:101D1000FEF7AAFD40B9A94BA94802221A701AB0D1
:101D2000BDE8F047FFF740BEA348FEF76BFBC4B227
:101D30007D2C52D8A14B20465C701D70FFF7C4FF6C
:101D4000A04804F5166221461AB0BDE8F047FFF737
:101D50003BBE9D4996480522FEF760FF04460028D9
:101D60004BD1052399488DF8103004AA07A9FFF735
:101D7000B0FE90B3914E9DF8105007A92A46F01C72
:101D8000FEF748FB012333709DF81C309DF81D10B1
:101D90009DF91C2035721B0443EA01239DF81E1097
:101DA0008B4E002AB4BFAA2255220B4343EA02639A
:101DB000884A13610FAA07AB20461146C4B2A54258
:101DC00002F102020CD81AAB03EB4503002203F820
:101DD0002C2C81482A46FFF7F7FD1AB0BDE8F087A2
:101DE00013F8014B270904F00F04F75D345D02F886
:101DF000027C02F8014C0130E0E778496C48FEF7BC
:101E000033FD38B96D4B1870724B75484FF0AA32DC
:101E10001A6184E773496648FEF726FD18B9674BD7
:101E2000987071487BE771496148FEF71DFD20B944
:101E3000624B6F4801229A7071E76E495C48FEF769
:101E400013FD20B95D4B6C4802229A7067E76B491D
:101E500057480322FEF7E2FE0646002840F0E080E5
:101E6000554F3A213846FEF78FFC054608B96448BD
:101E700055E7C41BA31FDBB2042B01D961484EE711
:101E8000E4B22246394604A8FEF7C4FA04F1680316
:101E90000DEB03040DF10602052304F8586C02A9AA
:101EA00004A88DF80630FFF714FE18B95648FFF75E
:101EB0007BFD92E700238DF807306B784BB10DF175
:101EC0000703202207A9681CFFF7E8FD08B94F485F
:101ED000EDE79DF807909DF80650B9F1000F52D13B
:101EE0004C46DFF83881EB1E022B98F800704CD876
:101EF000B9F1200F49D8B9F1000F01D0002C3AD028
:101F00002A4602A90FA8FEF785FA05F168030DEB32
:101F100003027B0003F0060343EAC9035B0802F8EF
:101F20002C3C05F169031FFA85FAAE1C0DEB030585
:101F3000002305F82C3C1FFA89F5B9F1000F07D0F2
:101F400034B10FAB98194A462146FEF763FA2E4486
:101F500005EB0A0102310FA8FFF7D6FC06F1680372
:101F60006B44020A03F82C2C06F16803B41C0DEB39
:101F7000030606F82B0C013707F0030788F80070FA
:101F80002CB9234893E707ACABE70024F3E7E1B2B1
:101F90000FA8FFF749FD38B19DF807201D482346DB
:101FA00004A9FFF711FD18E71B4880E7B17E000088
:101FB00098030020B57E00009B0300203C01002018
:101FC000BA7E0000CC7E0000E77E00009D0300206A
:101FD0008882000078010020ED7E0000117F000063
:101FE0001E7F0000337F00003B7F00006D7F0000FC
:101FF000757F0000A77F0000B17F0000E57F000033
:10200000E97F000011800000288000003E80000071
:10201000578000006E800000908000005C0500206A
:102020001A491B480322FEF7F9FD70B91948FFF75A
:10203000BBFC194A936A43F00203936205F0F2FB7A
:10204000164B0122C3F87C25FEE7154910480722EC
:10205000FEF7E4FD00287FF4C0AE8DF81C0007AB4E
:1020600010482A220FA9FFF719FD08B90E481EE7EC
:102070009DF81C100FA8FFF7D7FC28B19DF81C1085
:102080000A48FFF7A1FCA8E6094810E7A88000006D
:1020900098030020AC8000000000094000002043AD
:1020A000C98000009F030020D1800000E68000006E
:1020B000FB8000002DE9F04FABB00E46144617A987
:1020C0006C4B6D4A05464FF0000C0F465FFA8CF0E2
:1020D000844201F1020122D82AAB03EB4403DFF86A
:1020E000AC8166484FF0000903F84C9C3246234609
:1020F00000972946FFF768FC98F80020012AA4B24F
:1021000040F08A8098F80810CB1E022B17D998F857
:102110000810CB1E022B5AD92BB0BDE8F08F13F854
:10212000010B4FEA101E00F00F0012F80EE0105CD9
:1021300001F802EC01F8010C0CF1010CC6E70AAB46
:102140002046FFF737FD0028E1D007AA9DF82910A7
:10215000DFF83CE10DF12A0C00241346E0B288427E
:1021600002F102025FD32AAA02EB41019DF8584016
:10217000002201F88C2C002C65D19DF82F00DFF88F
:1021800014E10DF1320C3946E2B2824201F1020152
:102190005FD32AAA02EB4002002102F84C1C9DF8F2
:1021A00028E0DFF8F4C0364A9DF830109DF8314041
:1021B0000090BEF1000F08BF6246CDE90372CDE981
:1021C0000114304832462946FFF7FEFBA4E70AAB6C
:1021D00002222046FFF7EEFC00289DD0B5E71AF852
:1021E000011BCB1E022B0ED908F1FF3818F0FF0897
:1021F000F5D1B9F1000F12D14FF00109DFF89CA021
:102200004FF00308EBE71BF809200AAB2046FFF765
:10221000D1FC0028E8D098E7DFF884B0EEE70AABFD
:1022200042460521D5E71CF8010B4FEA101800F0D3
:102230000F001EF808801EF8000002F8028C02F859
:10224000010C01348AE7104832462946FFF7BCFBEF
:1022500062E71CF8012B4FEA121802F00F021EF879
:1022600008801EF8022001F8028C01F8012C0134CC
:102270008AE700BFC8040020888200001F81000098
:102280001781000071810000488100003C0100209E
:1022900088820000888200001A810000838200008A
:1022A000868200002DE9F04F4FF0805497B000F087
:1022B00057F9D4F8B431DFF838921B6800222F2187
:1022C0001C209847D4F8B43100221B6830211D200F
:1022D0009847D4F8B43100221B6831211E2098475A
:1022E00004F03AFB0DA803F00BF94FF461231393AC
:1022F00001246A4B0E930DA90020ADF8344003F081
:102300005FFC6749C9F800000023224603F030FA59
:1023100005A801F089FF05AB624A6349634801F0F3
:102320008FFF634B186000285FD0624C6248FFF754
:102330003BFBA278002A63D1604B2178002965D04D
:102340005F4A6048012918BF024661785E480092E2
:1023500001F51662FFF738FB5C4B6078DFF894817B
:102360004FF0AA321A61FFF7AFFC002598F8003051
:1023700063B1FFF7C1FC564B49491D60D9F8000015
:1023800088F800500023012203F0F2F92378022B91
:102390006CD1002698F800305FFA86FB002B37D10D
:1023A0005846FFF791FC04F065FF029004F05CFFD3
:1023B0006FF0770A44F620630027B3FBF0F3039332
:1023C00004F058FF029BC01A039B984231D33A1E77
:1023D00018BF012231463F48CDF800A03B460136E8
:1023E000FFF7F2FA7E2ED5D1C0E73B483B4CFFF712
:1023F000DBFA3B48FFF7D8FA204604F055FFFBE72D
:10240000384B3949012A18BF0B4696E7374A9CE7F3
:10241000FFF772FC2E4B22491D60D9F8000088F8A6
:1024200000500023012203F0A3F92378022BB7D038
:102430009CE714226FF077030DEB02010DF11300FE
:102440008DF813308DF81450FFF75CFB0028B7D0DF
:102450009DF913109DF814208A4507F1010758468D
:10246000FFB2B8BF8A46FFF725FEA9E788234FF4DD
:102470007A7205A90DF113008DF813308DF8145000
:10248000FFF740FB00283FF471AF9DF814209DF941
:1024900013106078FFF70EFE68E700BF3D190000DB
:1024A0000805002048010020C0010020C8030020CA
:1024B000C00300203C010020C3810000387F0000E1
:1024C000BA810000B57E000025820000780100205E
:1024D000B803002051820000EE81000040420F004E
:1024E00005820000727F0000AC7F0000167F0000B4
:1024F0004C050020BC030020FEE7FEE7FEE70000DD
:1025000008B505F021FB104B1048DA1C121AC11E49
:1025100022F00302994288BF00220D49FDF77AFF9D
:102520000C480D494FF000028842B8BF40F8042B18
:10253000FADBDFF82800016841F470010160FFF761
:10254000B1FEFFF7DAFF08BD84030020D8000020A9
:102550005C87000088030020440E002088ED00E026
:1025600008B502F07FFA024B00221A7008BD00BFC6
:10257000F00600200E4BF0B54FF0580C0546002435
:102580001E46B3F930708F42184609D11F69BD420B
:1025900006D15AB10CFB046797F83370174205D186
:1025A0000134082C03F15803EBD10020F0BD00BF2B
:1025B00020080020034BDA69002AFCD00022DA61EF
:1025C000704700BF0010044030B50C461546B1FA04
:1025D00081F1B2FA82F24909520900283FD055B17F
:1025E00090F84430002B39D0ECB194F8443043B922
:1025F0001A46002133E0002C36D094F8441000290C
:1026000030D0236C416B24699B08C3EB91030169B3
:10261000A14214BFC96800215B1A03F18053B3F1D2
:10262000805FE6D905B3EB681B7B03F00F03022B39
:102630001CD1036C696B9A08C2EB91022B6901698A
:10264000994214BFDB680023D21A02F18052B2F122
:10265000805F94BF00220122012100E01A4601EAB6
:10266000020030BD0122FAE70122F5E70022F3E77C
:10267000002070470A4B1A68936802F13800194627
:102680005B680BB18342FAD14B7B190706D1508F9F
:1026900040F60903C31A584258417047002070475A
:1026A000E00700200A4605494B6833B189680842B3
:1026B00003D001460248006818477047B082000006
:1026C000E007002070470000064B1B78022B07D163
:1026D000054B1A6922B95869B0FA80F04009704771
:1026E00000207047D0070020FC0700200F4B70B57A
:1026F0001E6805684FF080530446D3F88C311B6B7D
:102700009847801B030BB5EB103F84BF5B195B0838
:1027100040F6C4129342236001D9226070BDB3F524
:10272000967F3CBF4FF496732360F7E7280700209D
:1027300081B38B01090E202923F0FF0319D0212931
:1027400019D0A02919D0D1B110291AD011291AD025
:1027500040291AD0502914BF90228022134343F0FD
:102760000F03014650F8042BB2F1FF3F0FD10B606D
:1027700070471022F2E72022F0E73022EEE74022F5
:10278000ECE75022EAE76022E8E77022E6E79A42A7
:10279000E7D1ECE7704791B38B01090E202923F0B4
:1027A000FF021BD021291BD0A0291BD0E1B1102989
:1027B0001CD011291CD040291CD0502914BF9023B3
:1027C0008023134343F00F03014650F8042BB2F16A
:1027D000FF3F11D14FF0FF330B6070471023F0E73C
:1027E0002023EEE73023ECE74023EAE75023E8E735
:1027F0006023E6E77023E4E79A42E5D1EAE7704711
:1028000070B5044616461D4604F0D8FD5CB1D4E907
:102810000A2332432B43C4E90A23D4E90823324371
:102820002B43C4E90823BDE8704004F0CFBD70B568
:102830005023144640F2FF3205460E4601F0A5FE35
:10284000FF280CD0A2022B2E18BF42F40A7203B24A
:102850000CBF42F02B0242F0030245F8232070BD6A
:1028600070B51C4D044604F0A9FD95F8243023EA08
:1028700004032C6885F8243006464CB9686870B9A2
:102880000BB92B6ABBB93046BDE8704004F09EBD61
:1028900004F1B80004F0DEFC0446686820B1B830EA
:1028A00004F0D8FC0443E4B295F82430002BEAD1BC
:1028B000002CE8D1E5E79A6A9207E4D530465C6AD5
:1028C00004F084FD286A00220221A04700232B6225
:1028D00070BD00BF2C0700200720FFF7C1BF10B557
:1028E0000129044638BF012104F09AFC2046BDE8C6
:1028F000104004F019BC2DE9F041D0F8A88004463E
:102900000F4616461D46B8F1000F00D0C047D4E967
:10291000282316401D4056EA05031BD08022394665
:102920002046FFF727FEC4E92C6550B1D0E9081313
:1029300023EA050321EA0601C0E90813D4F8A83008
:1029400083600023C4F8A83004F15000BDE8F041D2
:1029500004F0D6B8BDE8F08138B5184B1B685A684A
:10296000D2E90135D46810B37DB924B92BB3BDE8E1
:10297000384001F009BE124A1249D56111600BB10D
:1029800001F002FEFFF716FE0BE00D4A0021D161B7
:102990000C4911600BB101F0F7FDFFF70BFEA847E2
:1029A00004B1A047BDE83840074801F0B7BD03B106
:1029B0009847002DF1D1002CE4D138BDE00700206C
:1029C00000100440510007060100070670B5144EC0
:1029D0001448356901F00CFE134AD368D4680440EA
:1029E000184010F020030AD04DB128460022B561EE
:1029F000FFF706FF0D484FF4804104F0BFF914F4CF
:102A000060240CD00A4A0B4892F8613043EA5443E0
:102A100082F86130BDE87040002104F0AFB970BDAC
:102A2000FC07002020000E0000100440DC0B0020FA
:102A300068070020840B0020064B70B55C68064BCD
:102A40001D6804F095F9234601462846BDE870400C
:102A5000184700BFD0070020E007002008B50D4B45
:102A600019420CD0012003F0B5FD012808D10A4B12
:102A70000A4A5A600A4B0022DA610A4A1A6008BD03
:102A800004F0F2FB3221BDE80840B1FBF0F106484A
:102A9000FFF725BF04000020D00700205D3B0000A9
:102AA0000010044054070020240B002008B54FF00C
:102AB000FF3001F02BFD830706D5BDE80840034831
:102AC0004FF4006104F05AB908BD00BFDC0B0020D0
:102AD00038B5094B1B78022B0D46DCB209D101F049
:102AE0001DFD05B12860C0B2012808BF8124204621
:102AF00038BD0124FBE700BFD0070020042838B50B
:102B000005461AD10E4804F0A5FBB0B104F0ACFBA9
:102B100004460B4804F086FB4443B4F5967F0CD280
:102B2000074804F079FB052002F0E2F8054B06485F
:102B3000012229465A7304F021F9002038BD00BF54
:102B4000240B0020D0070020DC0B00202DE9F843E7
:102B50001D46454B089ED3F894420388C4F3406752
:102B6000A40167D5B3F5C15F16D043F60604A342AE
:102B70001BD040F60204A3424FD100F112030B60B8
:102B80004369136083692B60C369336090F80F80D9
:102B9000047C04F0070416E000F112030B604369A3
:102BA0001360436A2B60836AEFE700F11A030B603E
:102BB000C3691360036A2B60436A3360047E4FF07D
:102BC000000804F00704286888B105234FF6FF7257
:102BD00040F2037101F0D9FC042808D80FFA80F9FB
:102BE000214640462D6801F0E3FC45F82900306895
:102BF00080B105234FF6FF7240F2037101F0C5FC6E
:102C0000042807D804B2FF214046356801F0D0FC03
:102C100045F824003846BDE8F88300F11A030B603C
:102C2000C3691360836A2B60C36A336090F82480A1
:102C3000047EAEE7B3F5C15F07D043F60604A342B6
:102C40000CD040F60204A34208D100F112030B603D
:102C50004369136000232B603360DBE700F11A0344
:102C60000B60C369F5E700BF0010005010B50146C6
:102C7000447E80680388002286B0B3F5C15FCDE949
:102C80000222CDE9042242802FD01FD840F6020252
:102C900093422AD000234B7605AB009303AA04ABE2
:102CA00002A9FFF753FF80B3029B1A884FF6FF7308
:102CB0009A422AD105990398FFF73AFD164B1B68F3
:102CC00043B3039806B0BDE810401847A3F560531E
:102CD000063B012BDED8437E62F382034376038BEF
:102CE0008CB162F309130383D4E7437C6FF382034F
:102CF0004374038A1CB16FF309130382CAE72D22C0
:102D000062F30913F9E72D22EBE705990398FFF722
:102D100042FDD3E706B010BD180700208B002DE957
:102D2000F04105466FD50020FFF716FE374C384AB4
:102D30003849002340F60A08D3611160A4F80080E6
:102D40006380227B63F3030222736360637B01224F
:102D500062F3030328466373FFF788FFAF683B46BF
:102D60001E465B6833B11A88424503D0A2F60302BF
:102D7000012AF5D8737B74606FF303037373264BDA
:102D80001B6833B1DB681B88A3F603039BB2012BDE
:102D900015D92B8F9BB1B5F8443023F4706305F13E
:102DA000380123F00F0343F480736160A5F84430C9
:102DB000637B002262F303036A87EA636373174C41
:102DC000FFF7F8FB164B6360637B7BB102F00EF9F3
:102DD0000028FBD002F022F90D4B0022DA613946BF
:102DE0001F600120BDE8F041FFF75CBC012003F04B
:102DF000F1FB0128F0D0737B012262F303037373AC
:102E0000084B6360E8E7BDE8F08100BF540700208D
:102E10000010044001010E04FC070020D007002030
:102E20005D3B00005D2A0000F0B5002387B0CDE9CE
:102E30000233CDE9043305AB0E4600931546C1F3CA
:102E4000150404AB03AA02A9FFF780FE002E23DBC2
:102E5000029BD0B1049E86B1059F77B140F22B2131
:102E60001C8022463046FFF7E2FC03983946FFF704
:102E700092FC15232B806E600CE019884FF6FF72D0
:102E8000914202D1032007B0F0BDA4B21C801023F0
:102E90002B806C808320F6E70028F3D0DDE90373F4
:102EA0007BB1059E6EB1029B4FF6FF721A802B21FB
:102EB00022463046FFF7BBFC31463846FFF738FC68
:102EC000D7E722462B213846FFF7B1FCFF28D9D09F
:102ED000029B4FF6FF721A8014232B806C60D9E797
:102EE000F7B51E681D463246FD2304468DF80730AF
:102EF000FFF76AFB10B101238DF807309DF807300A
:102F0000FD2B10D1E3681B7B03F00F03022B0AD1CA
:102F10004EB1376831463A462046FFF755FBB8B107
:102F200002238DF807309DF80730FD2B04D1E36BA9
:102F300013B104238DF807309DF80730012B5FB2E1
:102F400008D12146284601F0E1FB384603B0F0BD28
:102F50003E46DDE7022F06D1326832B121462846CF
:102F600001F0A8FBF1E7042FEFD12146284601F03C
:102F7000B7FBEAE72DE9F74F01931F4B1C6880462A
:102F80000D46174644B1AC420AD1DFF86C902E468C
:102F9000002409F1080A2EB9204603B0BDE8F08FDD
:102FA0002468EFE73369D6F800B098451FD14FF099
:102FB000805300223046FFF723FC019B73B10022AF
:102FC0004FF080733046FFF71BFC0C4B2A691A62E6
:102FD00093F8242042F0010283F824203146484629
:102FE00001F0AAFB3146504601F07AFB0134002F74
:102FF000D2D05E46CFE700BFFC0700202C070020A0
:103000002DE9F74F05469DF830700C461E46924656
:103010004FF00008EAB94FF0005904F0CFF9621CF4
:10302000019024D1454B1A69B2B11269954213D16E
:10303000D3F810B0BBF1000F7DD09BF833301B06E6
:103040001CD40424019804F0C1F9204603B0BDE863
:10305000F08F4FF08049E0E75A6912B1126995424A
:1030600002D0D3F800B0E5E7D3F814B0E2E70022CD
:1030700021462846FFF77EFA8346DBE72F4C23697B
:103080005B4531D1206942464B46FFF7B9FB606989
:103090004B464246FFF7B4FB29482A4BBAF1000FD2
:1030A00018BF184601F03AFAAFB1206900224FF07C
:1030B0008073FFF7A5FB00224FF080736069FFF774
:1030C0009FFB214BDBF810201A6293F8242042F07A
:1030D000010283F824202EB121683B4601222846B4
:1030E000FFF748FF8324ADE763695B450FD1606953
:1030F0004B464246FFF784FB1448154BBAF1000FCC
:1031000018BF184601F00AFA002FE4D0D3E73B4677
:10311000324659462846FFF72DFF002891D00D4B27
:103120001A78012ADED01B78042BDBD00A490B4821
:1031300003F024FED6E7032484E700BFFC07002049
:1031400001000104010002042C07002001000124F9
:1031500001000224D007002002000040DC0B002008
:1031600010B5044604F02AF9034A13782343137078
:10317000BDE8104004F02AB9E407002070B51E4CE9
:1031800000252646A07A01281BD194F909301B4A54
:10319000113300FA03F3D9439160D1680B43D36034
:1031A00094F909309840C0B2FFF7DAFF002104F12A
:1031B0001000FFF78DFC81280ED1A06938B90223D9
:1031C000A3720135032D04F12004DBD170BD002171
:1031D000FFF77EFC8128F2D094F9091096F861304F
:1031E000074811228A401343DBB2002186F8613080
:1031F00003F0C4FDE5E700BF6807002000100440AD
:10320000840B002038B5054604F0D8F8084B1A782E
:10321000044622EA050018701B781B0703D40548F2
:10322000082103F0ABFD2046BDE8384004F0CEB8DD
:10323000E4070020DC0B0020054B9A8BDB8B12B2DD
:103240001BB29A4202D10820FFF7DCBF704700BFD3
:10325000FC070020F8B54A4DAC68002C00F08F80C8
:10326000E36809229BB1013A12F0FF020FD01988DE
:10327000A1F6030189B2012951D8226903F118018D
:10328000383253F8040B42F8040B8B42F9D1002179
:103290000020D4E90A23C4E90A01A16881B113F02E
:1032A000E24708D022F00F0223F0E24352EA030182
:1032B00037D100223B46A668B4F930102069B047E8
:1032C00004F07CF8EB8B0133C3F30B03EB83002397
:1032D00084F833304FF6FD7323860646294801F003
:1032E000D5F9304604F072F8EA8BAB8B12B21BB200
:1032F0009A4244D1244BD3E90045244B1B68B3B117
:1033000093F8FC30002B0CBF05200720FFF7A8FA2C
:103310003CBB75B9BDE8F8400020FFF78DBF5B6886
:10332000A0E7A668B4F930102069B047C1E70520CE
:10333000ECE7002395F8FC100022F1B92C6885F821
:10334000FC209C4238BF1C46002CE3D0631C16D0E6
:1033500003F08AFFB4FBF0F1BDE8F8400C48FFF73A
:10336000BEBA94F8FC301BB1002384F8FC30D0E7DF
:103370002368002DDED12C46E3E71446DFE7F8BDD5
:10338000FC070020040800202C070020E007002094
:10339000E00A0020F8B5044604F010F8A37A0546C8
:1033A0007BB31A4994F90920D1F84011012303FA9B
:1033B00002F0CE07C0B20CD515490968090608D538
:1033C00014491132CE689340DA4326EA0303CB60F6
:1033D0008A60002300260027C4E90033C4E904679B
:1033E000A3722372A3610C4B93F86020024383F80D
:1033F000602093F8622012B1013A83F86220FFF74F
:1034000001FF2846BDE8F84003F0E0BF0020084077
:103410000000044000100440680700202DE9F34735
:103420002E4C94F86130002B41D094F86130D807CD
:1034300047D5002500E0012594F8617003F0BEFF38
:1034400094F861301122AA4023EA020384F8613023
:1034500003F0BCFF04EB4510FFB2837A6A0133B37B
:1034600090F909601E4B54F80290D0F80480334460
:103470009B00D3F800A01023AB403B420DD1037A50
:10348000022B02D10369D90001D4FFF783FFCDF8E5
:1034900000A000224FF0006306E0FFF77BFF00234F
:1034A000009300224FF0007331464846C04794F81D
:1034B000613083B10B48002102B0BDE8F04703F052
:1034C0005DBC94F861309A07B5D494F861305B071D
:1034D000EDD50225B0E702B0BDE8F087680700200F
:1034E000250C0110840B002010B503F067FF124A71
:1034F00011780229034602D01278042A06D10F4A15
:103500001846546803F062FF204610BD03F05EFFCA
:103510004FF08053D3F88C311B6B9847084A10F555
:103520000030A0FB020341F1000102FB0133054A18
:1035300014691C44E8E700BFD007002000300440B5
:1035400000093D0054070020284B70B505461C6853
:10355000084671BB84B302B11460E1680B7B03F0D1
:103560000F03022B3FD1226948B3968DD368646B59
:103570001E44FFF7B9FF06F57A72201AB2EB900FDE
:103580004FEA90032DD2B0F1404F2AD29B1B012B62
:1035900038BF01232B6003F067FE2B68B3FBF0F309
:1035A00001200AE0E3681B7B03F00F03022BD2D05B
:1035B0002468002CF6D1204603462B6070BD098894
:1035C0000B4B568B93F86230A1F6030189B20129A7
:1035D00094BF5269126903EB830303EB8303134423
:1035E000C5E70023D6E70023DAE700BFFC07002089
:1035F000680700202DE9F043684F85B03D6800233F
:1036000002930393002D2DD07B690BB93B69BBB1AD
:103610003C69B4B13B691A692B699A4229D195F882
:10362000334014F010040CD07B6913BB3B69DB689A
:103630005B88002BFAD03B69DB685B88012BF5D0F7
:10364000012484F0010902AA494603A8FFF77CFF80
:10365000F0B184B9039921B3514805B0BDE8F043F6
:10366000FFF73DB902214F4805B0BDE8F04303F034
:1036700085BB0024E5E74C4B5E680EB1039B9BB114
:103680004A4B2A691B689A426CD04FF48061EAE782
:10369000454B5B68002B30D1F4B1444B1A682B6961
:1036A00030E0414B5E68BEB1DDF80880404B3869C0
:1036B0007969A3F10802CDE90098B04701280ED03E
:1036C000022817D138693B69B3F930100123009300
:1036D00000690022FFF794FC05B0BDE8F083B8F163
:1036E000000F18BF45460023B5F930100090286937
:1036F0001A46EFE7002CEFD0C2E7002CECD02B4BA2
:103700002A691B689A42C0D10820FFF729FD95F865
:1037100033302248DB0634D500F0B8FF7861D5E9B4
:103720000612244BEC68C84318615869014359617B
:10373000D1439960D9680A43DA6029460820FEF728
:10374000B1FF204600F0EAFE2388B3F5C15F04D044
:103750001BD840F6020293421CD121460120FEF7FD
:10376000A1FF17E0039B002BCED03B69002BCBD1F0
:103770007B69002BC8D1082005B0BDE8F043FFF7F6
:1037800041BD00F083FF3861C9E7A3F56053063BF4
:10379000012BE2D94FF0804165E700BFFC07002014
:1037A000240B0020DC0B0020E8010020E0070020B3
:1037B00004080020001004402DE9F043354B85B08B
:1037C0004FF4804000930433019300F09FFEC0B19A
:1037D0004FF004530021D3F898332F4C63F31501B5
:1037E0002E4B206893F885308068C3F3800363F321
:1037F000DF7102AAFFF718FB236801209968FEF722
:1038000051FF0027E8463D46B94658F8044B236867
:103810004BB32368986900F079FE0646324620686B
:103820000023FEF7EDFF16F00A0F2BD023681C4A89
:103830009B69516923F4804323F0020321EA0303C7
:1038400053612168D368C96923EA0103D360216801
:103850001020FEF727FF2168124800F041FF45F0D5
:103860000205C4F800905FB11DB10F48294603F06E
:1038700085FAFFF783FC05B0BDE8F043FFF7BABE59
:103880000127C2E7002EEED0084B22689A6145F46A
:103890008045E8E70C080020E00700200003002135
:1038A0000010044004080020DC0B0020FC0700206E
:1038B00038B5114D4FF0FF3000F028FE6A680F4B0D
:1038C0009A4204460DD10E490E48002203F0DEFD57
:1038D00002232B70FEF7CEFE18B9FFF74FFCFFF75F
:1038E00089FE094B1C4206D0BDE8384007484FF01E
:1038F000005103F043BA38BDD00700205D3B000003
:10390000B9370000C00B002002000040DC0B002093
:103910002DE9F04F002485B004600546224621467B
:1039200003A8FFF711FEDFF8A8A0DFF8A880009039
:103930004FF0FF3B2046264657464FF019099AF8AC
:103940000A204AB39AF80820022A38D0D8F8000092
:1039500097F86220418B0069DAF81440014419FBA2
:1039600002120192FFF7C0FD019A201A02F57A7146
:10397000B1EB900F4FEA90041FD2B0F1404F1CD230
:10398000A41A012C38BF012403F06EFCB4FBF0F440
:10399000A34528BFA34601200136032E0AF1200AC1
:1039A000CDD1009B7BB1039B10B15B4528BF5B462B
:1039B0002B60012005B0BDE8F08F0024E4E74FF054
:1039C000000B0120EDE70028F4D05B46F0E700BFD4
:1039D00068070020E007002013B5174B1A78022A69
:1039E00005D1192002B0BDE8104003F05DBD1A7882
:1039F000012A1FD01B78042B1CD003F0DFFC0446E7
:103A000001A8FFF785FF88B101990C4839B1FEF78D
:103A100066FF204602B0BDE8104003F0D7BC03F0BB
:103A2000FBFB0748042103F0A9F9F2E7034803F080
:103A3000F3FBEEE702B010BDD0070020240B0020FE
:103A4000DC0B002070B511F002060C460FD0FFF71A
:103A500001FC364B9B6833B144F002013448BDE8A9
:103A6000704003F08BB9BDE87040FFF7B5BF4A075F
:103A70005AD5304B304D012204201A7001F038F92C
:103A80004FF08053D3F88C311B6B98472B4B186049
:103A9000264B1B687BB11C692B685BB19C4209D02B
:103AA000A36A5B0704D5636A32460421204698471F
:103AB000012363762C602B68214C5B681A78214BBC
:103AC0000220C3F8D02101F013F9102001F026F9EB
:103AD000012323701C4B9B7813B90D2001F01EF9B4
:103AE0002B685B689A680AB9DB6823B1174B002220
:103AF000DA61174A1A60174B07221A60134B5A698A
:103B000000225A6199699A615A6942F0402242F052
:103B100002025A611A20104B636003F05BFCBDE89F
:103B20007040192003F056BC70BD00BFFC07002098
:103B3000DC0B002014070020E007002028070020ED
:103B4000D007002000200840B08200000010044090
:103B500051000706000004601D2D00002DE9F74309
:103B600011F4804705460C4636D003F027FC8F4AF7
:103B70009569034665B3D5E90A6706F00A0207F0BE
:103B8000E0410A4324D1D5E90A67D5E90A8929EA3F
:103B9000070328EA0602C5E90A2303F017FCAB680D
:103BA00053B156EA070307D0D5F808802869298E53
:103BB00032463B4609B2C04724F48044002C00F052
:103BC0000B827B48214603B0BDE8F04303F0D6B832
:103BD000184603F0FBFBEFE78A0059D5754A764E8D
:103BE000D2F8CC3143F08003C2F8CC3133781BB12A
:103BF000042000F0FFFF377003F0E0FB06460420CE
:103C000002F0E8FC6D4B1A68824238D12A7E002A05
:103C100035D06B4A126892B3644B1B6963B3DA68A0
:103C2000118840F60302914205D0DB681A8840F6FD
:103C300004039A4220D105F11400FEF757FD3046E7
:103C400003F0C4FBFEF716FD60B14FF000732E6A5F
:103C500000226FF480712846B047544B1B68A3B113
:103C6000FFF7BAFEEE6900224FF08063002128467C
:103C7000B04724F00054A1E705F11000DDE740F65D
:103C8000C412C5E904221860D9E744F00204E9E748
:103C900011F0020808D0FFF7DDFA444B9B68002BB7
:103CA0008FD124F0020489E711F4806600F0988037
:103CB00003F084FB0546FEF707FD3C4B1F68002818
:103CC00070D0002F6ED03F4B3F494048404E424697
:103CD0004FF0040983F8009003F0D8FB284603F066
:103CE00075FB3C483C4D03F097FA4FF08053D3F8F6
:103CF0008C311B6B9847304B3060012248461A705C
:103D000000F0F6FF38692860836A5B0703D5436AD1
:103D10004246494698470120FEF71EFE28680123C7
:103D20004376FEF7A3FF2B68996840F60A0C0A4613
:103D30001046526832B11588654503D0A5F60305D3
:103D4000012DF5D8427B4FF0010C6CF30302427356
:103D5000FA681288A2F6030292B200256245456015
:103D60000AD835601D4B0022DA6101201960FEF788
:103D700099FC24F4806421E71A8F002AF2D0B3F86A
:103D800044205D8722F4706222F00F0242F48072B8
:103D9000DD63A3F8442038334360437B65F30303BA
:103DA0004373DFE7284603F011FBE2E7FC0700203E
:103DB000DC0B002000200840140700201007002022
:103DC00028070020D0070020AD2A0000C00B0020EB
:103DD00024070020E00A0020E00700200010044033
:103DE00011F4006736D07E4D2B781BB1042000F013
:103DF00001FF2E70FEF73EFC40B17A4B186800229E
:103E0000056A4FF000736FF48071A847764D2B68F8
:103E10006BB14FF08053D3F88C311B6B98472A68F5
:103E2000704B801A1B68000BD86000232B606F4911
:103E30006F48002203F02AFB6E4B022119706E4B73
:103E40009B6813B16D4802F099FFFFF7C5FD24F49C
:103E50000064B3E60E0740F1B78003F0AFFA064600
:103E6000FEF732FC002800F0AB80654B1A7815078E
:103E700000F1A6801B78180600F1A28001A8FFF7C8
:103E800047FD18B1019B002B00F09A805D4D95F81D
:103E90006130002B40F09480AB7A3BB195F909304A
:103EA0000120A8729840C0B2FFF7ACF90137032F88
:103EB00005F12005F0D14F4D53482F7003F0ACF9B8
:103EC000304603F083FA514B49485A6900225A613F
:103ED000D968DA604E4903F0D9FA4FF08053D3F82D
:103EE0008C311B6B98474B4B1B68C01AAB68000B9F
:103EF000C0182B7B28BF4FF0FF30A86023B1464B82
:103F00001B68B0EBC32F24D9444BD3F84031D907F9
:103F10001BD5434B1B681A0617D5424B40F60902C6
:103F20001A8000225A80597B012060F303015973E3
:103F3000197B62F30301197334495A60CA610B603B
:103F40005A8802F44062002AFAD001232B7300231E
:103F5000AB6000F0F3FA344B002119600220FEF749
:103F6000A1FB022000F046FE102000F05DFE2F4B6A
:103F70001B7823B91B4B1868503002F0C1FD2C4B45
:103F80009B7813B90D2000F04FFE6B7B23B100230B
:103F900005206B7300F02EFE264B6B6000232B7008
:103FA000154BD88B9B8B00B21BB298420CBF0720DD
:103FB0000220FEF755FCFFF70FFD24F00804FDE595
:103FC000304603F003FAF6E74B007FF5F7ADFFF755
:103FD00003FD24F08044F1E503B0BDE8F08300BFA9
:103FE00014070020E007002024070020B937000054
:103FF000C00B0020D0070020FC070020DC0B0020B5
:10400000E407002068070020E00A002000100440B8
:10401000B1380000280700202007002000200840B9
:104020000000044054070020000004601C0700202A
:10403000B0820000453A0000054B5A68054B9A4291
:1040400001D1FFF7C9BC0448042102F097BE00BFAC
:10405000D00700205D3B0000DC0B00202DE9F74F6E
:1040600007460193DDE90C4B8946924603F0A6F919
:10407000374E00900025582303FB056898F833005D
:10408000020658D4334803F0C7F8334B019A988B93
:1040900088F832A00130C0F30B00988324F0C044AC
:1040A000C8F80820988BA8F8300024F480540BF04E
:1040B000200044F00204C8E90640802088F833005C
:1040C0000020C8E91200C8F8400088F84400C8F889
:1040D000340088F83800A8F8500099F80C00C8F8A7
:1040E0000C9000F00F004FF0000A4FF0000B4FF063
:1040F000FF340228C8E908ABC8F81070C8F83C4083
:1041000006D1D9F80810C8F83410012088F8380012
:10411000002187F8FC101048414600F0E1FA0E4BF0
:104120001B68434501D1FFF757FC582303FB056685
:10413000B6F9304004E00135082D9DD16FF001043F
:10414000009803F043F9204603B0BDE8F08F00BFAC
:1041500020080020E00A0020FC0700202DE9F0479D
:104160000C1E054691469A4646DB02F07DFD21462F
:10417000804680222846FEF7FDF9044618B190F8E3
:1041800033301B0606D4404602F070FE02200021A8
:10419000BDE8F087D0E9083249F00A064AF0E04766
:1041A00033403A40134311D0404602F05FFED4E959
:1041B000082306EA020007EA030122EA000223EAD2
:1041C0000103C5E92C01C4E90823E1E782680C4B2F
:1041D0009A421EBF8268C5F8A82083604046C5E9A0
:1041E000286702F043FE4FF0FF3105F1500002F066
:1041F00007FCD5E92C01CBE700200146C8E700BF4A
:10420000F7280000D3B5DDE90667CDE9006704466D
:10421000FFF724FF0A2201464FF0E043204602B098
:10422000BDE8D040FFF79ABF30B5044D04460FCD2E
:104230000FC495E80F0084E80F0030BD3083000004
:104240002DE9F0431D468FB00023CDE90233CDE9BF
:1042500004338C4B0446D3F8D4810F46164603F042
:10426000A7FA1C280ED1338843F60702934233D1B4
:1042700096F82430022B28D867B9002420460FB0C6
:10428000BDE8F08303F094FA1B28ECD0002FF4D0A3
:10429000002EF2D03A780123934013EA080FECD0B5
:1042A0000021304600F0A2F9774B1B68C4E9017683
:1042B000F3B9DFF8508203F081F898F80060012E1E
:1042C000074627D903F082F8D7E733696F4A23F00E
:1042D00064439342D1D1CFE740F60202934203D127
:1042E000F37B022BC8D9C8E7B3F5C15FC4D1F7E7A8
:1042F00005AB009303AA04AB02A93046FEF726FCE7
:10430000039850234FF6FF720B2100F03EF9FF286F
:10431000CFD1B2E7002E69D100F0A4FB5C4ADFF8F0
:10432000E891136843F002031360564B594AC3F8EF
:10433000CC2106A802F006FC99F8013056495748EE
:10434000089306AA02F006FC5549564806AA02F050
:1043500001FC06A803F090F899F80030524A079340
:10436000192106AB514803F043F8514A514806ABB6
:104370001A2103F03DF8504950483346324602F0C6
:104380001FFF33464E494F48324602F019FF4E4B4D
:10439000D3F8B43F13F4402F05D04C4A4C48334671
:1043A000042100F015FC99F8023013B10D2000F043
:1043B000B5FC484800F05EF9474800F05BF9474A11
:1043C000474B072082F86000464A00211160464AA8
:1043D00019701160454A996005201060444A99811E
:1043E00011700420434A5A60FEF75CF998F80030D7
:1043F0005A1C88F80020404A384642F8234002F010
:10440000E5FF1DB906A8FFF70FFF06AD2B68236077
:104410004FF4FA73EA69E360AB69A3622B8A226303
:104420006A686383012363764ABB40F6C412C4E919
:1044300004222376EA68314B002A14BF114619463C
:1044400021626A69002A14BF114619466162AA688E
:10445000002A18BF1346E361C822002104F1380086
:10446000FCF772F8002104F1500002F0A9FA0023D1
:1044700023491A4604F1B80002F0A2FEFEE600232A
:10448000D5E700BF00200840180700200F000001FA
:1044900000200940110000E0392A0000DC0B002058
:1044A0001D340000840B0020B1380000C00B002038
:1044B000CD290000680B002039400000240B0020AB
:1044C00039320000E00A002000400050FD2A0000C0
:1044D000E807002004080020FC07002068070020EF
:1044E000D0070020280700202407002020070020F4
:1044F000E4070020453A00002C070020C5260000F4
:10450000D92800001C070020B0820000024A13696D
:104510001840C3431361704700100440064B1A68EB
:10452000002AFCD1DA611860DA69002AFCD0002286
:10453000DA615868704700BF00100440104A1368E1
:1045400023F4087323F0020343F4087313600D4B44
:1045500003225A6541F230021A66502101229A65FF
:1045600019664FF4CA619A6519664FF486519A65C7
:1045700019669A65A3F50053C3F80021704700BF80
:104580000000046000600440704770B506460025D6
:10459000E8B2834204D956F82540B4F1FF3F01D177
:1045A000FF2004E014408C4205F10105F0D170BDFC
:1045B0001E2896BF0C4B002033F81000FF2908D1AD
:1045C00020F4806040F0C00040F2037343EA0040F2
:1045D000704711B940F03000F6E7CB074CBF40F010
:1045E000100040F02000EFE75083000000207047EB
:1045F000024A93681840C343936070470010044018
:104600000F4B002283F8202001229A7402221A758F
:10461000032283F86020042283F86A20052283F8AD
:104620006C20062283F86B2007225A77082283F831
:1046300029204FF00453034AC3F88424704700BF75
:10464000000400218141002110B5074C23783BB9BB
:10465000064907484FF43872FBF7DCFE012323704C
:10466000BDE81040FFF7CCBF180C0020908300007D
:104670004C40002110B5044602F0A0FE0023236048
:104680006360BDE8104002F0A1BE00BF38B504462B
:1046900002F094FE256825B12B6823602BB100221F
:1046A0005A6002F093FE284638BD636002F08EFE29
:1046B000284638BD70B515460C46064602F07EFE0B
:1046C0006B68C4E900532BB11C606C60BDE870409E
:1046D00002F07CBE34606C60BDE8704002F076BED3
:1046E00038B505460C4602F069FE6B680022C4E945
:1046F00000232BB11C606C60BDE8384002F066BE40
:104700002C606C60BDE8384002F060BE38B50546EC
:104710000C4602F053FE2B680022C4E900322BB194
:104720005C602C60BDE8384002F050BE6C602C60CC
:10473000BDE8384002F04ABE38B50C46054602F0E6
:104740003DFED4E9002332B153603BB11A60BDE8AD
:10475000384002F03BBE6B60002BF7D12A60BDE809
:10476000384002F033BE00BF704700BF00207047E2
:10477000002070470128F8B5044639D008B1002060
:10478000F8BD01F025FF454BD3F8B43F13F4402F9B
:10479000C3F3814509D1424B1C6934B1414802F051
:1047A0003BFD01F065FF2846A0473F4D95F83831A5
:1047B000002BE4D03D4BD3F89022802122F08002E0
:1047C000C3F89022C3F8981202F0F8FD95F846312C
:1047D000013BDBB285F846311BB9AB6823F0080317
:1047E000AB6002F0F3FD002385F838310020F8BDFE
:1047F00001F0F0FE0128C2D02B4D95F83831002B86
:10480000BDD1264ED6F8B43F13F4402F30D1244BFF
:104810001F69002F3AD001F019FF502003F00EF865
:104820002046B84705F1940002F07EFCD6F8B43F6C
:1048300085F8384113F4402F0CD0AB689B0609D49F
:104840001A4B8022C3F89822D3F8902242F08002BB
:10485000C3F8902202F0B2FDAA6895F8463142F002
:1048600008020133AA6085F8463102F0AFFD86E701
:1048700001F010FFD6F8B43F85F8384113F4402F0B
:10488000DBD1074B1B69002BE4D1D6E701F002FF17
:10489000D6F8B43F85F83841CFE700BF004000505C
:1048A0009C82000088020020F401002000200840C3
:1048B00070B502F083FD054601F0C4FE0028FBD070
:1048C000184C02F07BFD94F84631013BDBB284F8D2
:1048D00046311BB9A36823F00803A36002F076FDFC
:1048E0002846002384F8383102F070FD0E4B022078
:1048F0009E68B047246805466CB1A368DB064FF09C
:1049000000014FF0100003D5D4E90332984710B9E5
:104910002468002CF1D125B133460320BDE8704056
:10492000184770BDF40100209C82000008B501F01A
:10493000B3FEBDE80840FFF7BBBF00BF38B52B4B47
:10494000D3F89452D3F8902222EA05011540C3F817
:10495000901269061DD5264BD3F8B43FC3F381539B
:10496000022B35D0042001F035FE831E012B1CD90B
:10497000012838D01F4C24685CB1A3689A064FF018
:1049800000014FF02000F6D5D4E903329847002803
:10499000F1D02B0603D4154BC3F8985238BDFFF75E
:1049A00087FF124BC3F8985238BD124C01F018FE25
:1049B00002F004FD94F84531013BDBB284F8453147
:1049C0001BB9A36823F00403A36002F0FFFCD2E745
:1049D000094B186801F07CFE042001F0FBFD831EEA
:1049E000012BC5D8E1E701F0FBFDC3E7002008403B
:1049F00000400050F4010020F0010020034B002291
:104A000093F8410183F84121704700BFF401002071
:104A1000024B012283F84121704700BFF4010020BE
:104A2000014B9868704700BFF4010020022905D0AF
:104A3000012814BF00204FF47A707047012840F21B
:104A4000EE2314BF00201846704700BF044B93F8B4
:104A500041211AB1D3F86C3103B11847704700BF38
:104A6000F4010020F0B54D4C94F8423185B013B1FB
:104A7000002005B0F0BD012384F8423101F022FE90
:104A80004749484E84F87001D1F8B42F337B84F83D
:104A9000413112F4402F7368C4F86C31C2F381477E
:104AA00014D1336993B1D1F8AC5F02F0DDFBC5F3EB
:104AB000066564223C493B4605FB02F2B2FBF0F27C
:104AC00004F1940002F07CFB01F070FD00256846C3
:104AD00002F0E2FA354936488DF800506B462A4616
:104AE0000195029502F06CFB684602F0D5FA314957
:104AF00031488DF8005008226B460195029502F06E
:104B00005FFB2E4A2E482B46322102F071FC2D4BC2
:104B10002D4AC3F890522D482B462C2102F068FCF8
:104B20001F4B727BD3F8B43FC3F381530AB1032BFD
:104B30002DD00D2222FA03F3DA072CD5214AD2F820
:104B4000903243F04003C2F8903202F037FCA26882
:104B500094F8453142F004020133A26084F84531F3
:104B600002F034FC0E4BD3F8B03F5B0780D402F068
:104B700025FCA26894F8433142F001020133A2609F
:104B800084F8433102F022FC002005B0F0BD01237F
:104B900084F83931D2E701F023FDE3E7F401002086
:104BA000004000509C8200002D4900006947000031
:104BB00000020020BD540000440200203D490000D6
:104BC000CC02002000200840F9500000E80200203C
:104BD00058B152B110B50C460146C1E90242044831
:104BE0000B61FFF77DFD002010BD6FF002007047E4
:104BF000F401002010B5044602F0E0FB094A111947
:104C000091F84331013BDBB281F843312BB9936812
:104C10000121A14023EA0103936002F0D7FB0020A9
:104C200010BD00BFF4010020F8B5044602F0C6FB39
:104C30002B490A19054692F84A31013BDBB282F84A
:104C40004A31DBB9274A02EB8400468812F9240076
:104C500012F82440002816DB620637D44FF0805348
:104C60003046D3F8B8319B699847304602F0B6FE1B
:104C70000228FAD104F03F00142820D9284602F077
:104C8000A5FB0020F8BD4FF080573046D7F8B8316B
:104C90001B6A9847D7F8B83130469B6A9847D7F8CF
:104CA000B83130461B6B98470F4B104A012199626F
:104CB000936A9907FCD504F03F001428DED8FFF76B
:104CC000B3FF284602F082FB0020F8BD5836184694
:104CD00051F82630984704F03F001428CED8EEE76C
:104CE000F4010020708600000020086000200840C9
:104CF00010B5044602F062FB074A01219368A14007
:104D00001444194394F843319160013384F84331DA
:104D100002F05CFB002010BDF40100202DE9F04101
:104D20002F4F044602F04AFB3A19054692F84A31E1
:104D3000591C82F84A11DBB92A4E16F8248008F073
:104D40003F00142838D906EB840618F0800F7488C9
:104D500014D118F0400F38D14FF080532046D3F8CB
:104D6000B8315B699847204602F064FE0128FAD109
:104D7000284602F02BFB0020BDE8F0814FF0805662
:104D80002046D6F8B831DB699847D6F8B8312046C6
:104D90005B6A9847D6F8B8312046DB6A9847124BD1
:104DA000124A01219962936A9B07FCD5284602F0BA
:104DB0000DFB0020BDE8F08106EB8406FFF7AEFF97
:104DC00018F0800F7488C4D0D8E75834012057F801
:104DD00024309847284602F0F9FA0020BDE8F08117
:104DE000F4010020708600000020086000200840C8
:104DF00001282DE9F84340F0E080714DD5F8346189
:104E0000012E40F0D7800223C5F8343102F0D4FBE4
:104E10002C687CB1A368DF074FF000014FF0010060
:104E200005D5D4E903329847002840F0AF802468C4
:104E3000002CEFD195F85A7195F85931003F18BF01
:104E400001270BB147F0020795F85831002B7CD1B0
:104E5000012001F0BFFB012803D095F83831002B69
:104E600076D00020FFF786FCAB68D90774D4DFF852
:104E700054914FF08058D8F8D83148469B689847ED
:104E800004280446F7D0002001F00EFC012C05D1C7
:104E9000D8F8D8314B485B682146984701F08EFB23
:104EA0004FF080533846D3F8B8315B69984795F88E
:104EB0005431002B54D195F85331002B58D1424B2B
:104EC00001229A6203F160430022DA600323C5F8ED
:104ED0003431384602F0AEFD0128FAD13B4B2C6844
:104EE000DB6A74B1A3685A074FF000014FF0040069
:104EF00004D5D4E903329847002854D12468002C03
:104F0000F0D10027324B0122DA60A3F5005396421C
:104F1000DB6A4BD002F08EFC2C6874B3A3681B07CD
:104F20004FF000014FF0080003D5D4E90332984751
:104F3000B0BB2468002CF1D10123C5F8343102F054
:104F400043FB47BB2046BDE8F88347F004077FE7F3
:104F50001E46AB68D9078AD5012001F0A5FB9FE763
:104F60004FF4806001F0A8FB95F85331002BA6D0D8
:104F70004FF4816001F0A0FBA1E701233C46C5F896
:104F8000343102F021FB2046BDE8F8830123C5F847
:104F9000343102F019FB4FF0FF342046BDE8F883AE
:104FA0004FF0FF34C8E74FF0FF37ABE73046FFF76D
:104FB000E1FBAFE76FF00404C4E76FF00104C1E761
:104FC000F401002000400340002008600020094058
:104FD00000400940022807D0032804D108B500F09A
:104FE000E5F9002008BDFEE700F054B838B502F03E
:104FF000E5F9094B93F8383104462BB920460125D1
:1050000002F0E4F9284638BD01F00AFB05462046C7
:1050100002F0DCF9284638BDF401002070B502F03A
:10502000CDF91A4C054601F00DFB002384F8383108
:1050300002F0C4F994F84631013BDBB284F8463102
:105040001BB9A36823F00803A36002F0BFF9284648
:1050500002F0BCF90E4B02209D68A8472468064662
:105060006CB1A368DB064FF000014FF0100003D5D0
:10507000D4E90332984710B92468002CF1D126B145
:105080002B460320BDE87040184770BDF401002096
:105090009C82000038B5144C94F8393113B9134B85
:1050A0009B7BEBB102F08AF994F83B31B3B901254F
:1050B00084F83B5102F08AF90220FFF719FE0D2017
:1050C000FFF72CFE0A4B5A6862B984F83A21094A64
:1050D000402191630020D1631D6238BD02F076F952
:1050E000002038BD284638BDF40100209C82000015
:1050F00000800C4000500C40F8B5A54DA54A95F82D
:105100003A310024D4633BB1012B00F09D80022B87
:1051100000F0A880032B61D0D5F83C319E4C9F4F06
:105120000526062B00F23281DFE803F0372A1F1C28
:10513000120470000020032385F83A3101F014FABC
:10514000954B974801229A65BDE8F84001F0ECBF05
:105150000023C5F83C61A365A36D9A07FCD4D5F87C
:105160003C31DEE700200223E6E703220023C5F8F6
:105170003C21A365A36D9907FCD4D5F83C31D0E759
:105180000124022085F83A4101F0EEF9824B84486F
:105190009C65BDE8F84001F0C7BF42F62A230F2204
:1051A000FA603B6101F0C0F901236365636D9B0701
:1051B000FCD595F839210123FB61002A42D0002259
:1051C000C4F8842003223A600022C5F83C31A2656D
:1051D000A36D9807FCD4D5F83C31A2E76F4BD5F806
:1051E00010219B68A3F5C063002A83EAE371B8BF6E
:1051F0005242A1EBE3719142C5F82C3100F3858056
:10520000002385F830310623C5F83C31624A00237B
:1052100053659365536D9B07FCD45F4A946D14F0FE
:105220000204FBD15B495F4BCC6301225A600D2025
:10523000FFF7FAFC0220FFF7DDFCC5F83C4185F8DA
:105240003B41F8BD0323BDE795F8400101F0C2F8EA
:10525000554B85F840419B7B002BD4D00223C5F8E9
:105260003C315BE74D4B9C6801F0F6F8C5F8140142
:1052700001F0FAF8C5F8180101F0FEF8A4F5C062D3
:10528000C5F82801C5F81021002AB9D095F83031A9
:10529000002B4AD1D5F81831C5F82401C5F82C21C6
:1052A000002AA8BF022102EB4202B8BF6FF0010141
:1052B000521848BF033203EBA203D5F81401002BA8
:1052C000C5E9470336DD1E2B0ADDD5F82421002A67
:1052D00044D1332BA8BF3323153B0322C5E9483201
:1052E00001F0D2F8012001F0F7F8D5F8200101F023
:1052F000DFF8A4F2FF54D5F8240101F001F9022CE3
:1053000081D90423C5F83C3108E7D5F8140101F030
:10531000BBF8D5F8180101F0CBF8D5F8280101F059
:10532000EFF8012385F830316DE7D5F82031D5F855
:105330002C21B5E7D5F82421032A1DD06FF00902EE
:105340009342B8BF13460128B8BF01200B33013880
:105350000322C5E94703C5F82421C1E7292BA8BFCB
:1053600029233E28A8BF3E200B3B01300022C5E97F
:105370004703C5F82421B3E76FF013029342B8BF87
:10538000134615330022C5E94832A9E7FEE700BFFE
:10539000F401002000500C4000600C4000400C4024
:1053A0004402002000800C409C820000F8B53D4D76
:1053B0003D4C3E4F0526D5F83C31062B70D8DFE832
:1053C00003F04F4239362E200400374A002353653C
:1053D0009365536D9B07FCD4334A946D14F002041B
:1053E000FBD13349334BCC6301225A600D20FFF7C8
:1053F0001BFC0220FFF7FEFBC5F83C4185F83B4152
:10540000F8BD0020032385F83A3101F0ADF8264BB2
:10541000294801229A65BDE8F84001F085BE0023C5
:10542000C5F83C61A365A36D9A07FCD4C3E70020CF
:105430000223E8E703220023C5F83C21A365A36DFE
:105440009907FCD4B7E70124022085F83A4101F01E
:105450008BF8154B18489C65BDE8F84001F064BE18
:1054600042F62A230F22FA603B6101F05DF8012326
:105470006365636D9B07FCD595F839210123FB61BA
:1054800062B10022C4F8842003223A600022C5F8E9
:105490003C31A265A36D9807FCD48CE70323F3E7A6
:1054A000FEE700BFF401002000600C4000400C400B
:1054B00000500C4000800C404402002010B40C4A04
:1054C000936D9B07FCD50B4BD3F83C31012B0A4B5A
:1054D0000CBF202201229A61074B084A08210024B0
:1054E00001201C6091635DF8044BD1631860704724
:1054F00000600C40F401002000400C4000500C40C3
:1055000010B4074C84460FCCACE80F000FCCACE8CD
:105510000F002368CCF800305DF8044B704700BFE3
:10552000C4860000F8B50768044601F047FF7E7A9C
:10553000054626B12846BDE8F84001F047BF0123E3
:105540007B72204600F0EEFE606800F001FF20460E
:1055500000F0C6FC2046314600F006FF2846BDE8B4
:10556000F84001F033BF00BF2DE9F04F046885B06B
:1055700080460F461546994613B10023C9F80030FE
:1055800001F01CFFE3798246002B00F0C48094F800
:105590006460002E40F0BA80002D00F0B2804046DA
:1055A00000F064FC0123A667A663A672267384F844
:1055B00064304046C4E91A752567FFF7B3FF4046DB
:1055C00000F08EFC04F14C0601E0002B6DD003A925
:1055D000304601F0C3F8256F039985428446A06FD9
:1055E0002CBFE346AB465A46384428BF6546FAF717
:1055F00011FF5946304601F097F8236FA26FA3EBD5
:105600000B035A44002D2367A267DEDC2579022DA7
:1056100018D0002B4CD0504601F0D8FE2379E3B1CE
:10562000002501F0CBFE2379012B05D0B9F1000F45
:1056300002D0A36FC9F8003001F0C8FE284605B0BB
:10564000BDE8F08F00232367A36684F864305046DA
:1056500001F0BCFE2379002BE2D1216F04F17C0024
:1056600000294BD00E9901F0CBF908B10123237327
:1056700001F0A4FE0646404600F0F8FB0023404639
:105680002367A36684F8643000F02AFC227BA37AA7
:10569000002A14BF6FF00C0500253046002B18BF00
:1056A0006FF00D0501F092FEBBE72579022DC9D000
:1056B0000023012DA76E84F86430A366ABD1257456
:1056C000504601F083FEE67BA6B9237C93B1AA463F
:1056D00001F074FEA4F80FA001F078FEA36CA26F95
:1056E0000096D4F8CC5039464046A847237CE67350
:1056F000002BEDD101F062FE82468CE701F080F9CB
:105700008EE701F063FE6FF0090597E701F05EFE9A
:105710006FF0080592E701F059FE6FF00E058DE776
:105720002DE9F047914684B007460E469A46154645
:1057300000244FF0FF3807E0CDF80080FFF714FF9A
:10574000039B1C44ED1A30B92A1B311903AB3846B0
:10575000002DF1D12846BAF1000F01D0CAF800405F
:10576000B9F1000F08BF6FF0090004B0BDE8F08781
:1057700010B50468646814F0FF1F82B003D1FFF70E
:10578000CFFF02B010BD4FF0FF340094FFF7ECFEE6
:1057900002B010BD2DE9F04F83B0D0F80080D0F8F2
:1057A00004B00191054614461E460BB100221A6052
:1057B000002C00F0998001F013FE814601F0FEFDFF
:1057C00098F807200746002A00F09F8098F8E82004
:1057D00002F0FF01002A40F08A80019BC8F8EC30FB
:1057E000012208F5807AC8F8F040C8F8F440C8F8FB
:1057F000FC10C8F83C1088F80D1088F80B1088F8D9
:10580000E820504601F0FCF8584600F0A7FDB9F139
:10581000000F04D198F805B0BBF1000F27D028463F
:1058200000F0B2FA384601F0D1FD98F805207AB1BF
:1058300016B1D8F8FC20326098F80B20002A5BD112
:1058400098F80D30002B5DD1002003B0BDE8F08F3B
:105850000C99504601F0D4F810B1012288F80D20BF
:10586000284600F0BBFB002288F8E820E0E7384635
:1058700001F0ACFDD5E90089D8F84430DA0607D547
:10588000D8F84830D8F840705A4610212846B84712
:10589000D8F8FC20019B21461A44484600F078FDC8
:1058A000D8F8FC20241A0244C8F8FC20F2D148465B
:1058B00000F088FD0028FAD0484600F05FFAD8F8DA
:1058C00044309B0607D5D8F84040D8F848302846E1
:1058D00000222021A047002388F8E830002EB3D012
:1058E000D8F8FC303360AFE76FF00900ADE701F0A6
:1058F0006DFD6FF00800A8E7002288F80B206FF01C
:105900000D00A2E76FF00C009FE701F05FFD6FF064
:105910000E009AE72DE9F04F85B0154642680468FD
:10592000019281460F46984613B10023C8F8003013
:10593000002D76D001F042FDE3790646002B78D0A9
:1059400094F8E82002F0FF03002A6DD1C4F8FC307F
:10595000E3636373E3720123019884F8E830C4F8C9
:10596000EC70C4F8F050C4F8F45000F0F7FC304686
:1059700001F02CFD04F1D00602E0D4F8F43063B35A
:1059800001F01CFD03A90546304600F03DFFD4F8A8
:10599000F430D4F8FC1083422CBF82469A468446E9
:1059A00052463944039834BF9B46E346FAF732FD2A
:1059B0005146304600F00AFFD4F8F410D4F8FC3019
:1059C000A1EB0A015344C4F8F410C4F8FC30284693
:1059D00001F0FCFCBBF1000FCFDC01F0EFFCD4F8D0
:1059E000FC3005468BB900236FF00F06B8F1000FAD
:1059F00001D0C8F80030002384F8E830284601F0D0
:105A0000E5FC304605B0BDE8F08F019800F0A6FC3B
:105A1000484600F0B9F9D4F8FC300026002BE5D157
:105A2000E1E76FF00906ECE701F0D0FC6FF0080643
:105A3000E7E701F0CBFC6FF00E06E2E710B4046874
:105A400094F805C0019C0194BCF1020F03D05DF8ED
:105A5000044BFFF79FBE5DF8044BFFF75BBF00BF31
:105A600010B582B04FF0FF340094FFF7E7FF02B0AB
:105A700010BD00BF704700BF70B5054682B06846D4
:105A80000C4601F0E9FB95F83430424A4248D35CB9
:105A900095F8362095F83510825C4048415C4FF00F
:105AA00080500B43D0F8D001019946682068134319
:105AB0002A6BB04723683A4840F2F2725A6494F86D
:105AC000543094F85510374A415CD35C22680B433C
:105AD0005363E369012B24D02268136B23F4004342
:105AE0001363E3692268012B13D0136B23F4804303
:105AF00013632268D36A43F01003D3622268136BE6
